:020000040800F2
:10000000D04D002001010008D5280008CB010008D0
:100010000D01000891040008893300080000000069
:10002000000000000000000000000000812900081E
:10003000E90500080000000053010008D929000864
:100040001B0100081B0100081B0100081B01000820
:100050001B0100081B0100081B0100081B01000810
:100060001B0100081B0100081B0100089504000883
:100070001B0100081B0100081B0100081B010008F0
:100080001B0100081B0100081B0100081B010008E0
:100090001B0100081B0100081B0100081B010008D0
:1000A0001B0100081B0100081B0100081B010008C0
:1000B0001B0100081B0100081B0100081B010008B0
:1000C0001B0100081B0100081B0100081B010008A0
:1000D0001B0100083D3200081B010008DD3200084A
:1000E0001B0100081B0100081B010008DFF80CD0F1
:1000F00000F0C6F800480047A5020008D04D0020D7
:100100000648804706480047FEE7FEE7FEE7FEE7B1
:10011000FEE7FEE7FEE7FEE7FEE7FEE79D2B0008B1
:10012000ED000008EFF3108072B6704780F310887E
:100130007047334A1368012B04D04FF0010313605A
:10014000304A1060304A116030484FF080510160F1
:100150007047EFF3108272B62948016891B14FF0F1
:10016000000101602748016829B1EFF3098121E905
:10017000F00F00680160244909680968B1E8F00FD0
:1001800081F3098882F310884EF0040E70471E49EF
:1001900008601C494FF00000086019494FF0010049
:1001A00008601B484FF47F01D0F8002041EA0201AB
:1001B000016016484FF080510160164800680068E1
:1001C00080F3088861B662B670471EF0040F0CBF5A
:1001D000EFF30880EFF3098020E9F00F40F804ED19
:1001E0001EF0040F0CBF80F3088880F3098800B567
:1001F00005F044FD5DF804EB4EF0040E704700007E
:1002000074460020644400207044002004ED00E0A7
:1002100020ED00E008ED00E0D2B201E000F8012B93
:10022000491EFBD270470022F6E710B513460A4676
:1002300004461946FFF7F0FF204610BD10B50446EE
:1002400004E00B7800F8013B03B1491C521EF8D2C0
:10025000204610BD421C10F8011B0029FBD1801A5A
:10026000704730B505460020034600E05B1C934212
:1002700005D2EC5CC85C201A01D1002CF6D130BD4F
:10028000064C074D06E0E06840F0010394E80700E3
:1002900098471034AC42F6D3FFF72CFFE47C0008FB
:1002A000047D000880B507F049F9002080BD0000FA
:1002B00080B584B0029000200190029800688068A8
:1002C000C00738B3FFE702980168886820F0010092
:1002D000886000F08FFF0190FFE702980068806857
:1002E000C007B0B1FFE700F085FF0199401A03286D
:1002F0000ED3FFE70299886A40F0100088620299E5
:10030000C86A40F00100C86201208DF80F0005E0C6
:10031000E3E7FFE700208DF80F00FFE79DF80F00EF
:1003200004B080BD80B582B001900198406A009011
:100330000098806A10F0500F28D1FFE70099886A72
:1003400040F40070886200980068806800F46020C3
:10035000B0F5602F16D1FFE70098007B90B9FFE75A
:100360000099886A20F4807088620098806AC004CE
:10037000002806D4FFE70099886A40F001008862EF
:10038000FFE7FFE7009800F03DFA05E00098006AFB
:10039000016B01988847FFE702B080BD80B582B04D
:1003A00001900198406A00900099886A40F04000EE
:1003B00088620099C86A40F00400C862009800F0A2
:1003C00029FA02B080BD000080B582B0019001988A
:1003D000406A0090009800F019FA02B080BD000059
:1003E00080B584B0029000200190009002980068CF
:1003F0008068C007002842D1FFE70298016888683A
:1004000040F00100886040F20000C2F20000006885
:100410004DF68361C4F21B31A0FB0110800C0090EB
:10042000FFE7009820B1FFE7009801380090F8E757
:1004300000F0E0FE0190FFE7029800688068C007C6
:10044000E0B9FFE700F0D6FE0199401A032814D363
:10045000FFE70299886A40F0100088620299C86A32
:1004600040F00100C862FFE70299002081F82400F3
:10047000FFE701208DF80F0005E0DDE7FFE7002032
:100480008DF80F00FFE79DF80F0004B080BD00005D
:10049000FFE7FEE780B582B005F0DAFC0020C4F289
:1004A000020000688007002806D5FFE70421C4F297
:1004B000020102200860FFE740F2FC00C2F20000E7
:1004C0000078062829DCFFE700208DF80700FFE709
:1004D0009DF80700032818DCFFE79DF8072040F28D
:1004E000DC00C2F2000050F8223040F2EC01C2F20F
:1004F000000151F82200184441F82200FFE79DF85E
:10050000070001308DF80700E2E740F2FC01C2F27B
:1005100000010878013008703AE040F2FC00C2F2B5
:1005200000000078072832D1FFE700208DF8060090
:10053000FFE79DF8060003281BDCFFE79DF8063067
:1005400040F2EC01C2F2000151F82300C00840F271
:100550000412C2F2000242F823009DF80620002097
:1005600041F82200FFE79DF8060001308DF80600F3
:10057000DFE740F2FC01C2F200010020087040F207
:100580000010C2F20000006806F016F9FFE7FFE76E
:1005900005F076FC02B080BD84B003900291019218
:1005A00000930398C16B026C012090404860009852
:1005B00003990968486003984068102809D1FFE74B
:1005C0000198039909688860029803990968C860CE
:1005D00008E00298039909688860019803990968FE
:1005E000C860FFE704B07047704700007047000024
:1005F00083B0FFE741F21800C4F20200016841F045
:1006000004010160006800F0040002900298FFE716
:10061000FFE741F21800C4F20200016841F008014E
:100620000160006800F0080001900198FFE7FFE713
:1006300041F21800C4F20200016841F010010160AB
:10064000006800F0100000900098FFE703B07047CA
:1006500085B00390029100208DF807000090FFE71D
:10066000039890F82400012804D1FFE702208DF8B8
:100670001300C3E00399012081F82400FFE7FFE79E
:1006800002984068062812D8FFE703980068406B7C
:10069000029A1168526802EB8202053A1F239340C6
:1006A00098439140084303990968486329E00298F8
:1006B00040680C2812D8FFE703980068006B029A84
:1006C0001168526802EB8202233A1F239340984339
:1006D0009140084303990968086311E00398006892
:1006E000C06A029A1168526802EB8202413A1F23E3
:1006F000934098439140084303990968C862FFE713
:10070000FFE7029800680A2812D3FFE70398006801
:10071000C06802990A68896802EB42021E3A072300
:10072000934098439140084303990968C86010E0DA
:1007300003980068006902990A68896802EB42021E
:10074000072393409843914008430399096808613F
:10075000FFE702980068102805D0FFE702980068BC
:10076000112840D1FFE70398006842F20041C4F22B
:10077000010188422DD1FFE70398006880680002DC
:10078000002825D4FFE703980168886840F400003A
:10079000886002980068102819D1FFE740F2000035
:1007A000C2F2000000684DF68361C4F21B31A0FB69
:1007B0000110800C00EB800040000090FFE70098E3
:1007C00020B1FFE7009801380090F8E7FFE7FFE766
:1007D00008E00399886A40F02000886201208DF8C3
:1007E0000700FFE7FFE7FFE70399002081F82400F7
:1007F000FFE79DF807008DF81300FFE79DF8130051
:1008000005B0704781B0009001B0704781B0009092
:1008100001B0704781B0009001B0704780B588B0DA
:10082000069000208DF8170004900390029006981F
:1008300020B9FFE701208DF81F00F4E006988068DA
:1008400030B1FFE70698007D08B1FFE7FFE7FFE75B
:100850000698806A50B9FFE706990020C862069999
:1008600081F82400069800F0E3F8FFE70698FFF708
:100870001FFD8DF817000698806AC006002800F159
:10088000C480FFE79DF81700002840F0BE80FFE716
:100890000698806A40F0020020F488500699886229
:1008A00006994868CA691043097B40EA41010398E8
:1008B00008430390069881680120B1F5807F01907C
:1008C00008D0FFE7069880680138B0FA80F0400948
:1008D0000190FFE701990498CA0740F48071002A4B
:1008E00018BF084604900698007D01281ED1FFE736
:1008F0000698007B70B9FFE7069881694EF2000008
:10090000CFF6FF7000EB41300499084340F40060DB
:1009100004900AE00699886A40F0200088620699EF
:10092000C86A40F00100C862FFE7FFE70698006868
:10093000406820F4694004990843069909684860B2
:100940000698006880684FF2FD71CFF6E1710840AB
:100950000399084306990968886006988168012010
:10096000B1F5807F009008D0FFE7069880680138D5
:10097000B0FA80F040090090FFE7009800F0010015
:10098000002818BF4FF48070B0F5807F09D1FFE7D1
:10099000069801690020CFF6F07000EB015002903C
:1009A000FFE706980068C06A20F4700002990843C7
:1009B00006990968C86206980068806840F6FE617A
:1009C000CFF61F710840039988420CD1FFE70699C2
:1009D0000020C8620698806A40F0010020F0020002
:1009E0000699886210E00698806A40F0100020F0B6
:1009F0000200069988620699C86A40F00100C86240
:100A000001208DF81700FFE708E00699886A40F09A
:100A10001000886201208DF81700FFE79DF817008D
:100A20008DF81F00FFE79DF81F0008B080BD000093
:100A300080B588B007900020069005900490039040
:100A40000798006842F20041C4F20101884254D183
:100A5000FFE7FFE741F21800C4F20200016841F429
:100A600000710160006800F4007002900298FFE7D6
:100A7000FFE741F21800C4F20200016841F00401EE
:100A80000160006800F0040001900198FFE73F203A
:100A900003900320049040F60000C4F2010003A973
:100AA00000F000FA40F26420C2F200000090082139
:100AB000C4F2020101600021416081608021C160B7
:100AC0004FF4007101614FF40061416120218161A7
:100AD0004FF40051C16100F027F918B1FFE7FFF7AB
:100AE00085FDFFE7FFE7079840F26421C2F20001AD
:100AF000016207984862FFE7FFE708B080BD000089
:100B000080B586B004900391029200208DF8070012
:100B10000498006842F20041C4F20101884209D001
:100B2000FFE70498006842F60001C4F20101884220
:100B300009D1FFE742F20440C4F20100006800F46A
:100B40007020009002E000200090FFE7009800284D
:100B500040F0DC80FFE7FFE7049890F824000128CC
:100B600004D1FFE702208DF81700D8E00499012096
:100B700081F82400FFE7FFE70498FFF731FC8DF8C8
:100B800007009DF80700002840F0B880FFE70498B0
:100B9000806A40F4807040F601618843049988625D
:100BA0000498006842F60001C4F20101884209D1AC
:100BB000FFE742F20440C4F20100006810F4702F15
:100BC00003D018E00020B0B9FFE70499886A20F448
:100BD000801088620498006840684005002809D5A4
:100BE000FFE70498806A40F4805020F40050049994
:100BF0008862FFE72CE00499886A40F480108862DC
:100C00000498006842F20041C4F20101884209D010
:100C1000FFE70498006842F60001C4F2010188422F
:100C200009D1FFE742F20440C4F201000068400528
:100C3000002803D40BE0012048B9FFE70498806A3C
:100C400040F4805020F4005004998862FFE7FFE7E9
:100C50000498806AC004002806D5FFE70499C86A92
:100C600020F00600C86203E004990020C862FFE794
:100C7000FFE70499002081F82400FFE70498016A47
:100C800040F22530C0F6000088620498016A40F204
:100C9000C930C0F60000C8620498016A40F29D3075
:100CA000C0F600000863049801686FF00200086055
:100CB00004980168886840F480708860049801682E
:100CC000006A4C31039A029B00F086F80498006891
:100CD000806800F46020B0F5602F07D1FFE704982A
:100CE0000168886840F4A000886006E00498016804
:100CF000886840F480108860FFE706E0FFE7049909
:100D0000002081F82400FFE7FFE703E001208DF8D1
:100D10000700FFE79DF807008DF81700FFE79DF833
:100D2000170006B080BD000083B001900020009045
:100D3000019820B9FFE701208DF80B0047E00199E9
:100D400008684FF6F872CBF6FD7210444CF6CD42AF
:100D5000CCF6CC42A0FB02026FF0030000EA920046
:100D6000086401990020C4F20200C86301990220BE
:100D700081F821000198006800680090009843F60F
:100D8000F0718843009001994868D1F808C0CB6899
:100D90000A6940EA0C00184310434A6910438A6903
:100DA0001043C969014300980843009000980199D5
:100DB00009680860019900208863019A012182F87E
:100DC0002110019981F820008DF80B00FFE79DF8B4
:100DD0000B0003B07047000080B586B0049003910B
:100DE0000292019300208DF80300FFE7049890F829
:100DF0002000012804D1FFE702208DF817004CE005
:100E00000499012081F82000FFE7FFE7049890F89B
:100E10002100012832D1FFE70499022081F8210046
:100E200004990020886304980168086820F0010094
:100E3000086004980399029A019BFFF7ADFB0498A0
:100E4000C06A38B1FFE704980168086840F00E00F6
:100E500008600CE004980168086820F0040008604D
:100E600004980168086840F00A000860FFE70498E9
:100E70000168086840F00100086009E0FFE7049994
:100E8000002081F82000FFE702208DF80300FFE733
:100E90009DF803008DF81700FFE79DF8170006B0D6
:100EA00080BD000090B00F900E9100200D90099031
:100EB000FFE70E9800680D99C840002800F07F8178
:100EC000FFE70D99012088400C900E9800680C995E
:100ED00008400B900B980C99884240F06C81FFE71A
:100EE0000E9840680590002851D0FFE7059801282A
:100EF0003AD0FFE7059802283FD0FFE7059803287E
:100F00005FD0FFE70598112832D0FFE70598122837
:100F100038D0FFE705980021C1F21101884236D090
:100F2000FFE705980021C1F2120188422FD0FFE7A8
:100F300005980021C1F22101884228D0FFE70598D9
:100F40000021C1F22201884221D0FFE7059800214B
:100F5000C1F2310188421AD0FFE705980021C1F2A1
:100F60003201884213D02FE00E98C06809902CE01F
:100F70000E98C0680430099027E00E98C0680830C9
:100F8000099022E00E98C0680C3009901DE00E9880
:100F9000806818B9FFE70420099011E00E98806876
:100FA000012806D1FFE7082009900C980F990861E5
:100FB00005E0082009900C980F994861FFE7FFE7CA
:100FC00003E00020099000E0FFE70B98FF2803D81A
:100FD000FFE70F98049003E00F9804300490FFE7B8
:100FE000049808900B98FF2804D8FFE70D9880001C
:100FF000039006E00D996FF01F0000EB8100039055
:10100000FFE70398079008980068079A0F2191401E
:101010008843099991400843089908600E98C0795F
:10102000C006002840F1C680FFE7FFE741F2180044
:10103000C4F20200016841F001010160006800F0A3
:10104000010006900698FFE70D9820F003000821A4
:10105000C4F2010140580A900D9800F0030081008D
:101060000F2000FA01F10A9888430A900F9840F681
:101070000001C4F20101884203D1FFE70020029081
:1010800026E00F9840F60041C4F20101884203D1E6
:10109000FFE70120019018E00F9841F20001C4F22F
:1010A0000101884203D1FFE7022000900AE00F9976
:1010B00041F20042C4F201020420914208BF032021
:1010C0000090FFE700980190FFE701980290FFE78A
:1010D00002980D9901F00301890000FA01F10A98C4
:1010E00008430A900A980D9921F003010822C4F2DE
:1010F000010288500E988079C00748B1FFE70B9A2B
:1011000040F20041C4F2010108681043086008E0A1
:101110000B9A40F20041C4F2010108689043086054
:10112000FFE70E9880798007002809D5FFE70B9A22
:1011300040F20441C4F2010108681043086008E06D
:101140000B9A40F20441C4F2010108689043086020
:10115000FFE70E988079C006002809D5FFE70B9AB3
:1011600040F20841C4F2010108681043086008E039
:101170000B9A40F20841C4F20101086890430860EC
:10118000FFE70E9880798006002809D5FFE70B9AC3
:1011900040F20C41C4F2010108681043086008E005
:1011A0000B9A40F20C41C4F20101086890430860B8
:1011B000FFE7FFE7FFE70D9801300D9079E610B0EB
:1011C0007047000082B00190ADF802108DF8012048
:1011D0009DF8010028B1FFE7BDF802000199086100
:1011E00005E0BDF80200000401990861FFE702B0C4
:1011F0007047000044F6C010C2F20000006870475B
:1012000080B582B042F20001C4F20201086840F0E9
:1012100010000860032000F09BF80020019000F00F
:1012200005F800F03BF8019802B080BD80B582B0AF
:10123000009040F20000C2F20000006840F2C401D9
:10124000C2F200010A784FF47A71B1FBF2F1B0FBFF
:10125000F1F000F06FFE20B1FFE701208DF80700EC
:1012600018E000980F280DD8FFE700994FF0FF30E5
:10127000002200F053F8009840F2C801C2F20001C9
:10128000086003E001208DF8070003E000208DF8DE
:101290000700FFE79DF8070002B080BD80B584B06D
:1012A000FFE741F21800C4F20200016841F00101B9
:1012B0000160006800F0010003900398FFE7FFE77A
:1012C00041F21C00C4F20200016841F0805101604B
:1012D000006800F0805002900298FFE7052000F0BF
:1012E00037F8FFE70421C4F2010108680190019872
:1012F00020F0E0600190019840F0007001900198AA
:101300000860FFE704B080BD80B582B08DF80700AB
:101310009DF9070002F064F802B080BD80B586B088
:101320008DF81700049103920020029002F070F8EB
:1013300002909DF91700019002980499039A01F018
:10134000CBFA0146019802F06BF806B080BD0000B0
:1013500080B582B00190019802F084F802B080BD9F
:1013600080B586B004900020039002900498007825
:10137000C007002800F0AC80FFE700208DF80700D0
:1013800041F21C00C4F202000068C000002813D41F
:10139000FFE7FFE741F21C00C4F20200016841F0E0
:1013A00080510160006800F0805000900098FFE7D5
:1013B00001208DF80700FFE747F20000C4F20000AB
:1013C0000068C005002822D4FFE747F20001C4F2FC
:1013D0000001086840F480700860FFF70BFF03907D
:1013E000FFE747F20000C4F200000068C0050028D3
:1013F0000CD4FFE7FFF7FEFE0399401A652804D3DB
:10140000FFE703208DF817008AE0EAE7FFE741F2E3
:101410002000C4F20200006800F4407002900298BC
:10142000E0B3FFE702980499496801F440718842EB
:1014300034D0FFE741F22001C4F20201086820F431
:101440004070029040F24042C4F2422201201060FB
:1014500000201060029808609DF80800C007E0B105
:10146000FFE7FFF7C7FE0390FFE741F22000C4F259
:1014700002000068800700280ED4FFE7FFF7BAFEDD
:101480000399401A41F28931884204D3FFE70320CF
:101490008DF8170044E0E8E7FFE7FFE741F220019D
:1014A000C4F20201086820F44070049A52681043A4
:1014B00008609DF80700012809D1FFE741F21C01EF
:1014C000C4F20201086820F080500860FFE7FFE7DF
:1014D00004980078800700280CD5FFE741F204014A
:1014E000C4F20201086820F44040049A9268104354
:1014F0000860FFE704980078C00600280CD5FFE7D5
:1015000041F20401C4F20201086820F48000049A48
:10151000D26810430860FFE700208DF81700FFE74E
:101520009DF8170006B080BD80B584B0029001918F
:10153000029820B9FFE701208DF80F001BE1019808
:1015400042F20001C4F20201096801F00701884279
:1015500016D9FFE742F20000C4F20200016821F050
:101560000701019A11430160006800F0070001992A
:10157000884204D0FFE701208DF80F00FBE0FFE771
:1015800002980078800700282AD5FFE702980078A3
:101590004007002809D5FFE741F20401C4F2020127
:1015A000086840F4E0600860FFE7029800780007F0
:1015B000002809D5FFE741F20401C4F202010868DE
:1015C00040F460500860FFE741F20401C4F20201F8
:1015D000086820F0F000029A926810430860FFE764
:1015E00002980078C007002860D0FFE702984068A2
:1015F00001280ED1FFE741F20000C4F202000068AA
:101600008003002804D4FFE701208DF80F00B2E02A
:1016100021E00298406802280ED1FFE741F2000065
:10162000C4F2020000688001002804D4FFE7012012
:101630008DF80F009FE00DE041F20000C4F20200BF
:1016400000688007002804D4FFE701208DF80F0010
:1016500091E0FFE7FFE741F20401C4F202010868EC
:1016600020F00300029A526810430860FFF7C2FDA1
:101670000090FFE741F20400C4F20200006800F0AD
:101680000C0002994968B0EB810F0ED0FFE7FFF71D
:10169000B1FD0099401A41F28931884204D3FFE735
:1016A00003208DF80F0066E0E4E7FFE7019842F2BF
:1016B0000001C4F20201096801F00701884216D254
:1016C000FFE742F20000C4F20200016821F00701C6
:1016D000019A11430160006800F0070001998842F7
:1016E00004D0FFE701208DF80F0044E0FFE70298E7
:1016F0000078400700280CD5FFE741F20401C4F24E
:101700000201086820F4E060029AD2681043086081
:10171000FFE702980078000700280DD5FFE741F2A7
:101720000401C4F20201086820F46050029A1269B0
:1017300040EAC2000860FFE700F04CF841F2040103
:10174000C4F202010968C9B20A0947F2D071C0F6B1
:101750000001895CC84040F20001C2F2000108604B
:1017600040F2C800C2F200000068FFF75FFD0020F1
:101770008DF80F00FFE79DF80F0004B080BD00005A
:1017800040F20000C2F200000068704780B5FFF729
:10179000F7FF41F20401C4F202010968C1F3022219
:1017A00047F2E071C0F60001895CC84080BD0000CE
:1017B00080B5FFF7E5FF41F20401C4F202010968B8
:1017C000C1F3C22247F2E071C0F60001895CC84053
:1017D00080BD00008BB040F60E70C1F210000A9080
:1017E00040F60A30C0F60C50099040F20670C0F680
:1017F0000810089040F20230C0F20450079040F206
:101800000120ADF81A00002005900490039002908A
:10181000019041F20400C4F20200006805900598AE
:1018200000F00C0001460091E0B3FFE700980428A7
:1018300004D0FFE70098082806D034E041F20020E9
:10184000C0F27A00019034E00598C0F3834107A804
:10185000405C02909DF81600C007C0B1FFE741F25E
:101860000400C4F20200006800F400310DF11A0017
:1018700040EA514000780490029841F20021C0F201
:101880007A0148430499B0FBF1F0039007E0029815
:1018900040F60011C0F23D0148430390FFE7039872
:1018A000019006E0FFE741F20020C0F27A000190CB
:1018B000FFE701980BB0704780B586B0049004989C
:1018C00020B9FFE701208DF817002EE30498007877
:1018D000C007002800F0AE80FFE741F20400C4F228
:1018E0000200006800F00C00042813D0FFE741F26A
:1018F0000400C4F20200006800F00C0008281BD1AC
:10190000FFE741F20400C4F202000068C0030028AF
:1019100012D5FFE741F20000C4F202000068800324
:10192000002808D5FFE70498406820B9FFE70120A8
:101930008DF81700F9E27CE0FFE704984068B0F505
:10194000803F09D1FFE741F20001C4F202010868BB
:1019500040F48030086032E00498406868B9FFE7DE
:1019600041F20001C4F20201086820F480300860EE
:10197000086820F48020086020E004984068B0F5F2
:10198000A02F0DD1FFE741F20001C4F20201086867
:1019900040F480200860086840F4803008600CE063
:1019A00041F20001C4F20201086820F480300860AE
:1019B000086820F480200860FFE7FFE7FFE7FFE703
:1019C00004984068D0B1FFE7FFF714FC0390FFE7ED
:1019D00041F20000C4F202000068800300280CD429
:1019E000FFE7FFF707FC0399401A652804D3FFE7D8
:1019F00003208DF8170098E2EAE719E0FFF7FAFBF9
:101A00000390FFE741F20000C4F202000068800387
:101A100000280CD5FFE7FFF7EDFB0399401A652876
:101A200004D3FFE703208DF817007EE2EAE7FFE723
:101A3000FFE7FFE7049800788007002840F18D80D9
:101A4000FFE741F20400C4F20200006810F00C0F3E
:101A500013D0FFE741F20400C4F20200006800F076
:101A60000C00082829D1FFE741F20400C4F202006B
:101A70000068C003002820D4FFE741F20000C4F250
:101A8000020000688007002809D5FFE70498006974
:101A9000012804D0FFE701208DF8170045E241F24C
:101AA0000001C4F20201086820F0F800049A5269AB
:101AB00040EAC2000860FFE74EE00498006958B3AE
:101AC000FFE70021C4F2422101200860FFF792FBEA
:101AD0000390FFE741F20000C4F2020000688007B3
:101AE00000280CD4FFE7FFF785FB0399401A032871
:101AF00004D3FFE703208DF8170016E2EAE741F26E
:101B00000001C4F20201086820F0F800049A52694A
:101B100040EAC20008601EE00021C4F24221002019
:101B20000860FFF767FB0390FFE741F20000C4F293
:101B300002000068800700280CD5FFE7FFF75AFB7A
:101B40000399401A032804D3FFE703208DF81700F8
:101B5000EBE1EAE7FFE7FFE7FFE70498007800071B
:101B6000002848D5FFE70498806918B3FFE740F2E2
:101B70008041C4F2422101200860FFF73BFB039043
:101B8000FFE741F22400C4F2020000688007002849
:101B90000CD4FFE7FFF72EFB0399401A032804D368
:101BA000FFE703208DF81700BFE1EAE7012000F00E
:101BB000C9FE1FE040F28041C4F2422100200860CB
:101BC000FFF718FB0390FFE741F22400C4F2020084
:101BD0000068800700280CD5FFE7FFF70BFB03998F
:101BE000401A032804D3FFE703208DF817009CE177
:101BF000EAE7FFE7FFE7049800784007002840F194
:101C0000D880FFE700208DF8070041F21C00C4F2E5
:101C100002000068C000002813D4FFE7FFE741F28C
:101C20001C00C4F20200016841F0805101600068AC
:101C300000F0805000900098FFE701208DF8070029
:101C4000FFE747F20000C4F200000068C00500286A
:101C500022D4FFE747F20001C4F20001086840F413
:101C600080700860FFF7C6FA0390FFE747F20000B4
:101C7000C4F200000068C00500280CD4FFE7FFF79D
:101C8000B9FA0399401A652804D3FFE703208DF8B9
:101C900017004AE1EAE7FFE7FFE70498C068012878
:101CA00009D1FFE741F22001C4F20201086840F0C7
:101CB0000100086031E00498C06868B9FFE741F2AC
:101CC0002001C4F20201086820F0010008600868E1
:101CD00020F0040008601FE00498C06805280DD1BA
:101CE000FFE741F22001C4F20201086840F004005D
:101CF0000860086840F0010008600CE041F2200133
:101D0000C4F20201086820F001000860086820F0B1
:101D100004000860FFE7FFE7FFE7FFE70498C068FB
:101D2000E0B1FFE7FFF766FA0390FFE741F220001A
:101D3000C4F202000068800700280ED4FFE7FFF716
:101D400059FA0399401A41F28931884204D3FFE7D6
:101D500003208DF81700E8E0E8E71BE0FFF74AFAF8
:101D60000390FFE741F22000C4F202000068800700
:101D700000280ED5FFE7FFF73DFA0399401A41F21C
:101D80008931884204D3FFE703208DF81700CCE0A7
:101D9000E8E7FFE79DF80700012809D1FFE741F2D6
:101DA0001C01C4F20201086820F080500860FFE7BF
:101DB000FFE70498C069002800F0B380FFE741F214
:101DC0000400C4F20200006800F00C00082800F0D3
:101DD0008280FFE70498C06902285CD1FFE7602198
:101DE000C4F2422100200860FFF704FA0390FFE7E5
:101DF00041F20000C4F202000068800100280CD506
:101E0000FFE7FFF7F7F90399401A032804D3FFE728
:101E100003208DF8170088E0EAE70498006AB0F51F
:101E2000803F0CD1FFE741F20401C4F202010868CF
:101E300020F40030049A926810430860FFE741F2F2
:101E40000401C4F20201086820F47410049B1A6AA9
:101E50005B6A1A43104308606021C4F242210120EA
:101E60000860FFF7C7F90390FFE741F20000C4F2F2
:101E700002000068800100280CD4FFE7FFF7BAF9E0
:101E80000399401A032804D3FFE703208DF81700B5
:101E90004BE0EAE71EE06021C4F242210020086026
:101EA000FFF7A8F90390FFE741F20000C4F2020037
:101EB0000068800100280CD5FFE7FFF79BF9039924
:101EC000401A032804D3FFE703208DF817002CE005
:101ED000EAE7FFE724E00498C069012804D1FFE79E
:101EE00001208DF8170020E041F20400C4F2020046
:101EF00000680290029800F480300499096A8842D0
:101F000008D1FFE7029800F470100499496A8842EA
:101F100004D0FFE701208DF8170006E0FFE7FFE798
:101F2000FFE700208DF81700FFE79DF8170006B0C7
:101F300080BD000080B582B00190019800F022FDC4
:101F400002B080BD85B003900291FFE7039890F83E
:101F50003C00012804D1FFE702208DF8130039E08E
:101F60000399012081F83C00FFE7FFE70399022075
:101F700081F83D000398006840680190039800686C
:101F800080680090019820F070000190029801682C
:101F9000019808430190009820F08000009002987A
:101FA00041680098084300900198039909684860C7
:101FB00000980399096888600399012081F83D0021
:101FC000FFE70399002081F83C00FFE700208DF82F
:101FD0001300FFE79DF8130005B0704780B582B08D
:101FE0000090009820B9FFE701208DF807001DE060
:101FF000009890F83D0040B9FFE70099002081F873
:102000003C00009800F016F8FFE70099022081F8E4
:102010003D00009951F8040B00F0F0FD00990120FB
:1020200081F83D0000208DF80700FFE79DF80700CC
:1020300002B080BD82B0019001980068B0F1804F7D
:1020400010D1FFE7FFE741F21C00C4F20200016873
:1020500041F001010160006800F00100009000986B
:10206000FFE7FFE702B0704780B586B004900391A8
:10207000FFE7049890F83C00012804D1FFE7022014
:102080008DF81700A7E00499012081F83C00FFE7D4
:10209000FFE70499022081F83D00049800688068F9
:1020A0000290029820F077000290029820F47F407E
:1020B000029002980499096888600398006801906A
:1020C000002872D0FFE7019810286ED0FFE7019832
:1020D00020286AD0FFE70198302866D0FFE70198F2
:1020E000402855D0FFE70198502837D0FFE70198E6
:1020F000602840D0FFE7019870280BD0FFE70198D7
:10210000B0F5805F05D0FFE70198B0F5005F16D00D
:1021100052E052E004980068039B5A689968DB68B3
:1021200000F000FE0498006880680290029840F079
:102130007700029002980499096888603DE004984D
:102140000068039B5A689968DB6800F0EBFD04980F
:102150000168886840F4804088602EE00498006838
:10216000039A5168D26800F099FF049800685021E2
:1021700000F0F2FD21E004980068039A5168D268EB
:1021800000F0B4FF04980068602100F0E5FD14E061
:1021900004980068039A5168D26800F07FFF0498A1
:1021A0000068402100F0D8FD07E00498006803991A
:1021B000096800F0D1FD00E0FFE70499012081F8F3
:1021C0003D00FFE70499002081F83C00FFE7002074
:1021D0008DF81700FFE79DF8170006B080BD0000DE
:1021E00080B586B0049003910292FFE7049890F8BE
:1021F0003C00012804D1FFE702208DF817008DE094
:102200000499012081F83C00FFE7FFE704990220D0
:1022100081F83D00029801900C2800F2708001992D
:10222000DFE801F0076D6D6D206D6D6D3A6D6D6DC0
:10223000530004980068039900F0A4FD0498016815
:10224000886940F00800886104980168886920F076
:102250000400886103980269049801688869104342
:1022600088614DE004980068039900F0F3FD04983C
:102270000168886940F40060886104980168886991
:1022800020F4806088610398026904980168886975
:1022900040EA0220886133E004980068039900F066
:1022A00045FE04980168C86940F00800C8610498B8
:1022B0000168C86920F00400C861039802690498A5
:1022C0000168C8691043C8611AE00498006803995E
:1022D00000F098FE04980168C86940F40060C86185
:1022E00004980168C86920F48060C8610398026995
:1022F00004980168C86940EA0220C86100E0FFE76D
:102300000499012081F83D00FFE70499002081F83D
:102310003C00FFE700208DF81700FFE79DF817004D
:1023200006B080BD80B582B00090009820B9FFE76C
:1023300001208DF807001DE0009890F83D0040B99D
:10234000FFE70099002081F83C00009800F016F8A3
:10235000FFE70099022081F83D00009951F8040B35
:1023600000F04CFC0099012081F83D0000208DF820
:102370000700FFE79DF8070002B080BD81B0009024
:1023800001B0704780B584B0039002910398006853
:102390000299012200F0AAFC0398006842F600416D
:1023A000C4F20101884207D1FFE703980168486C35
:1023B00040F400404864FFE703980068806800F03C
:1023C000070001900198062807D0FFE703980168ED
:1023D000086840F001000860FFE7002004B080BDFD
:1023E00080B582B00090009820B9FFE701208DF8F9
:1023F00007003EE00098806908B1FFE700E0FFE7D2
:10240000009890F8390040B9FFE70099002081F862
:102410003800009800F032F8FFE70099242081F896
:10242000390000980168C86820F40050C86000981E
:1024300000F086FE00980168086920F49040086169
:1024400000980168486920F02A00486100980168F6
:10245000C86840F40050C86000990020C863009A22
:10246000202182F83910009A82F83A108DF807007E
:10247000FFE79DF8070002B080BD000080B592B074
:102480001190002010900F900E900D901198006800
:1024900043F60001C4F20101884243D1FFE7FFE7A0
:1024A00041F21800C4F20200016841F48041016069
:1024B000006800F480400C900C98FFE7FFE741F2C1
:1024C0001800C4F20200016841F0040101600068D4
:1024D00000F004000B900B98FFE74FF400700D9094
:1024E00002200E9003200790109040F60000C4F2E6
:1024F000010005900DA90691FEF7D4FC05980699F8
:102500004FF480620D9200220E920F92FEF7CAFCE9
:10251000079A252008900121FEF700FF0898FEF792
:10252000F3FE4CE01198006844F60001C4F200018B
:10253000884243D1FFE7FFE741F21C00C4F20200EA
:10254000016841F480210160006800F480200A9055
:102550000A98FFE7FFE741F21800C4F202000168A1
:1025600041F008010160006800F008000990099836
:10257000FFE74FF480600D90022003900E9003203F
:10258000109040F60040C4F2010001900DA90291A4
:10259000FEF788FC019802994FF400620D92002228
:1025A0000E920F92FEF77EFC039A272004900121E1
:1025B000FEF7B4FE0498FEF7A7FEFFE7FFE712B0B0
:1025C00080BD000084B002900191ADF80220029815
:1025D00090F83A0020284AD1FFE7019820B1FFE7A0
:1025E000BDF8020020B9FFE701208DF80F0042E09E
:1025F000FFE7029890F83800012804D1FFE7022095
:102600008DF80F0037E00299012081F83800FFE7CC
:10261000FFE7019802998862BDF802000299888557
:10262000BDF802000299C88502990020C86302998A
:10263000222081F83A00FFE70299002081F8380053
:10264000FFE702980168C86840F48070C86002988B
:102650000168486940F00100486102980168C86853
:1026600040F02000C86000208DF80F0003E0022039
:102670008DF80F00FFE79DF80F0004B070470000D1
:1026800080B584B0002103910291019140F2342081
:10269000C2F20000009042F20042C4F20102026065
:1026A0004FF480728260017301754FF4C022C261E1
:1026B000416004210161FEF7B1F818B1FFE7FDF7B1
:1026C00095FFFFE70020019001210291039040F265
:1026D0003420C2F2000001A9FDF7BAFF18B1FFE7EC
:1026E000FDF784FFFFE7012001900220029040F2F5
:1026F0003420C2F2000001A9FDF7AAFF18B1FFE7DC
:10270000FDF774FFFFE7022001900320029040F2E2
:102710003420C2F2000001A9FDF79AFF18B1FFE7CB
:10272000FDF764FFFFE7032001900420029040F2D0
:102730003420C2F2000001A9FDF78AFF18B1FFE7BB
:10274000FDF754FFFFE704B080BD000080B582B004
:10275000FFE741F21400C4F20200016841F00101F8
:102760000160006800F0010001900198FFE70B2074
:10277000009000210222FEF7D1FD0098FEF7C4FD73
:1027800002B080BD80B58EB0002100910D910C91FA
:102790000B910A9109910891079106910591049175
:1027A00003910291019140F2DC20C2F200004FF04F
:1027B0008042026040F2CF224260816040F2E73204
:1027C000C260016180218161FFF708FC18B1FFE759
:1027D000FDF70CFFFFE74FF480500A9040F2DC2039
:1027E000C2F200000AA9FFF73FFC18B1FFE7FDF7AE
:1027F000FDFEFFE740F2DC20C2F20000FFF792FD91
:1028000018B1FFE7FDF7F2FEFFE7002008900990FE
:1028100040F2DC20C2F2000008A9FFF793FB18B1D8
:10282000FFE7FDF7E3FEFFE7602001900020029044
:102830000390059040F2DC20C2F2000001A90422BE
:10284000FFF7CEFC18B1FFE7FDF7D0FEFFE70EB0B3
:1028500080BD000080B582B040F21C30C2F20000A2
:10286000019043F60001C4F2010101604FF4E1312F
:10287000416000218160C16001610C22426181617F
:10288000C161FFF7ADFD18B1FFE7FDF7AFFEFFE750
:1028900002B080BD80B582B040F25C30C2F2000070
:1028A000019044F60001C4F2000101604FF416519A
:1028B000416000218160C16001610C22426181613F
:1028C000C161FFF78DFD18B1FFE7FDF78FFEFFE750
:1028D00002B080BD7047000088B007900691059255
:1028E000079800F0070004900498C0F1070005283D
:1028F00003D3FFE70420019004E00498C0F107002F
:102900000190FFE70198039004980430062803D84B
:10291000FFE70020009003E0049803380090FFE7F1
:102920000098029006980399012202FA01F10139F8
:102930000840029B984005999A40013A114008438B
:1029400008B0704782B00190019840F20001C2F2D5
:1029500000010968C90844F6D352C1F26202A1FB22
:102960000221890948430090FFE700BFFFE7009874
:10297000411E00910028F8D1FFE702B07047000027
:102980007047000080B582B0009000980138B0F127
:10299000807F03D3FFE70120019019E00098013800
:1029A0004EF21401CEF2000108604FF0FF300F210B
:1029B00000F036FD4EF21801CEF200010020086052
:1029C0004EF21002CEF20002072111600190FFE7E3
:1029D000019802B080BD000080B503F039FA04F020
:1029E000E1FA03F04DFA80BD80B596B00CA80190D5
:1029F0002821FDF718FC0198002302930B930A93FA
:102A00000993089307930693059304930393012274
:102A10000C924FF480310D910E931092022213927A
:102A200014914FF4E0111591FEF746FF18B1FFE73E
:102A3000FDF7DCFDFFE70F20079002210891002041
:102A400009904FF480620A920B9007A8FEF76CFD84
:102A500018B1FFE7FDF7CAFDFFE7022003904FF42E
:102A60000040059003A8FEF77BFC18B1FFE7FDF7D7
:102A7000BDFDFFE716B080BD84B00020039002903A
:102A8000019041F20400C4F20200006800F00C0062
:102A900003900398009040B1FFE7009804280ED0FF
:102AA000FFE70098082814D056E040F20001C2F277
:102AB000000141F20020C0F27A00086056E040F2C6
:102AC0000001C2F2000141F20020C0F27A00086069
:102AD0004CE041F20400C4F20200016801F47011FC
:102AE0000291006800F4803001900299022000EB0E
:102AF00091400290019860B9FFE7029840F60011FA
:102B0000C0F23D01484340F20001C2F200010860FA
:102B100021E041F20400C4F20200006880030028B2
:102B20000CD5FFE7029840F60011C0F23D01484382
:102B300040F20001C2F2000108600BE0029841F28D
:102B40000021C0F27A01484340F20001C2F20001C4
:102B50000860FFE7FFE709E040F20001C2F2000170
:102B600041F20020C0F27A000860FFE741F2040061
:102B7000C4F202000068C0B2010947F2D070C0F68A
:102B80000000405C0390039A40F20001C2F2000191
:102B90000868D040086004B07047000041F20002AD
:102BA000C4F20202106840F00100106041F204011A
:102BB000C4F2020108680023CFF6FF031840086042
:102BC00010684FF6FF73CFF6F66318401060106878
:102BD00020F480201060086820F4FE00086041F2B4
:102BE0000801C4F202014FF41F0008604EF60851BC
:102BF000CEF200014FF000600860704783B0029091
:102C00000191029800680090029842F60041C4F2D7
:102C10000101884215D0FFE70298B0F1804F10D033
:102C2000FFE7029840F20041C4F20001884208D058
:102C3000FFE7029840F60001C4F2000188420AD181
:102C4000FFE7009820F0700000900198416800981C
:102C500008430090FFE7029842F60041C4F20101E8
:102C6000884215D0FFE70298B0F1804F10D0FFE7FF
:102C7000029840F20041C4F20001884208D0FFE708
:102C8000029840F60001C4F2000188420AD1FFE731
:102C9000009820F4407000900198C16800980843A3
:102CA0000090FFE7009820F08000019949690843EF
:102CB0000090009802990860019880680299C862A3
:102CC0000198006802998862029842F60041C4F2B5
:102CD0000101884205D1FFE7019800690299086364
:102CE000FFE702990120486103B0704784B0039068
:102CF00002910192029800F01F010120884000908B
:102D0000009A0399086A904308620198029901F0B9
:102D10001F0100FA01F20399086A1043086204B027
:102D20007047000085B004900391029201930498CB
:102D300080680090009820F47F40009003980299EA
:102D4000019A41EA0221014300980843009000984B
:102D50000499886005B0704783B002900191029891
:102D600080680090009820F0700000900198009911
:102D7000084340F00700009000980299886003B073
:102D80007047000085B0049003910499086A20F010
:102D9000010008620498006A01900498406800905D
:102DA000049880690290029820F0700002900298C6
:102DB00020F00300029003980168029808430290F3
:102DC000019820F00200019003988168019808435F
:102DD0000190049842F60041C4F2010188420ED1EC
:102DE000FFE7019820F0080001900398C16801985E
:102DF00008430190019820F004000190FFE7049837
:102E000042F60041C4F20101884213D1FFE7009865
:102E100020F480700090009820F4007000900398D7
:102E2000416900980843009003988169009808431D
:102E30000090FFE70098049948600298049988611F
:102E4000039840680499486301980499086205B0A2
:102E50007047000085B0049003910499086A20F03F
:102E6000100008620498006A01900498406800907D
:102E7000049880690290029820F4E0400290029841
:102E800020F44070029003980168029840EA012003
:102E90000290019820F02000019003988168019829
:102EA00040EA01100190049842F60041C4F2010189
:102EB00088420FD1FFE7019820F08000019003982D
:102EC000C168019840EA01100190019820F040008B
:102ED0000190FFE7049842F60041C4F201018842E4
:102EE00015D1FFE7009820F480600090009820F44E
:102EF0000060009003984169009840EA81000090CA
:102F000003988169009840EA81000090FFE70098EB
:102F1000049948600298049988610398406804996C
:102F2000886301980499086205B0704785B00490E1
:102F300003910499086A20F4807008620498006A7A
:102F400001900498406800900498C069029002982B
:102F500020F070000290029820F003000290039885
:102F60000168029808430290019820F400700190D3
:102F700003988168019840EA01200190049842F684
:102F80000041C4F2010188420FD1FFE7019820F40B
:102F9000006001900398C168019840EA0120019007
:102FA000019820F480600190FFE7049842F6004108
:102FB000C4F20101884215D1FFE7009820F4805047
:102FC0000090009820F40050009003984169009808
:102FD00040EA0110009003988169009840EA0110CE
:102FE0000090FFE700980499486002980499C8612E
:102FF000039840680499C86301980499086205B071
:103000007047000085B0049003910499086A20F489
:10301000805008620498006A01900498406800900B
:103020000498C0690290029820F4E040029002984F
:1030300020F44070029003980168029840EA012051
:103040000290019820F40050019003988168019843
:1030500040EA01300190049842F60041C4F20101B7
:1030600088420BD1FFE7009820F48040009003983D
:103070004169009840EA81100090FFE700980499A8
:10308000486002980499C8610398406804990864EC
:1030900001980499086205B07047000085B004905B
:1030A000039102920498006A00900499086A20F043
:1030B00001000862049880690190019820F0F000F6
:1030C00001900299019840EA01100190009820F0C7
:1030D0000A00009003990098084300900198049911
:1030E000886100980499086205B0704785B0049023
:1030F000039102920499086A20F010000862049873
:10310000806901900498006A0090019820F4704052
:1031100001900299019840EA01300190009820F056
:10312000A00000900399009840EA011000900198D7
:103130000499886100980499086205B070470000FE
:1031400080B584B0039003980068006920F4405073
:10315000039A1168D26810430861039988680A6964
:10316000496910430843029003980068C06841F21F
:103170000C6188430299084303990968C860039861
:103180000068406920F44070039A11689269104306
:1031900048610398006843F60001C4F201018842C7
:1031A00025D1FFE7FEF704FB019001981921484360
:1031B000039A116852689200B0FBF2FC48F21F5269
:1031C000C5F2EB12ACFB02304309642003FB10CCC8
:1031D000322000EB0C10A0FB0202F02000EA52109B
:1031E00000EB0310C2F343121044886024E0FEF7A2
:1031F000CDFA0190019819214843039A1168526849
:103200009200B0FBF2FC48F21F52C5F2EB12ACFB8D
:1032100002304309642003FB10CC322000EB0C1079
:10322000A0FB0202F02000EA521000EB0310C2F3F0
:10323000431210448860FFE704B080BD80B582B0BF
:103240004FF0FF30019002F003FE40F21C30C2F25A
:1032500000000068006800F020010020B0EB511F62
:1032600038D0FFE740F21C30C2F200000068C068AE
:10327000800600282ED5FFE7FFE74FF0FF300190D2
:1032800040F21C30C2F200000068006800F020012B
:103290000020B0EB511F08D0FFE743F60400C4F252
:1032A00001000068C0B20190FFE70198013008B941
:1032B000FFE708E09DF8041044F6B010C2F20000E9
:1032C00003F072F9D9E744F29460C2F2000003F00F
:1032D00073FAFFE702F0D4FD02B080BD80B582B082
:1032E0004FF0FF30019002F0B3FD40F25C30C2F2CB
:1032F00000000068006800F020010020B0EB511FC2
:103300003ED0FFE740F25C30C2F200000068C068C7
:103310008006002834D5FFE7FFE74FF0FF3001902B
:1033200040F25C30C2F200000068006800F020014A
:103330000020B0EB511F08D0FFE744F60400C4F2B0
:1033400000000068C0B20190FFE70198013008B9A1
:10335000FFE714E09DF8041040F28C10C2F2000068
:1033600003F022F901980A2808D1FFE740F28810FB
:10337000C2F20000006803F01FFAFFE7CDE7FFE7A5
:1033800002F07EFD02B080BDFFE7FEE782B0009054
:1033900000980138B0F1807F03D3FFE7012001904E
:1033A0001AE0009801384EF21401CEF200010860D4
:1033B0004EF62351CEF20001FF2008704EF21801A4
:1033C000CEF20001002008604EF21002CEF20002A0
:1033D000072111600190FFE7019802B070470000DB
:1033E00081B08DF803009DF9030000280ED4FFE79B
:1033F0009DF9031001F01F02012090404A094EF28E
:103400000011CEF2000141F82200FFE701B0704741
:103410004EF60C50CEF200000068C0F30220704758
:1034200082B08DF8070000919DF9070000280AD4AA
:10343000FFE7009800019DF907104EF20042CEF21E
:10344000000288540BE0009800019DF8071001F07D
:103450000F014EF61452CEF200028854FFE702B07C
:103460007047000083B00290029800F007000090BF
:103470004EF60C51CEF200010868019001984FF60B
:10348000FF02104001900198009A40EA02200022B9
:10349000C0F2FA52104301900198086003B07047DF
:1034A000002804BF00207047C1B209B101200CE020
:1034B00010F47F4102D0090A092006E010F47F01D0
:1034C00007BF010E1920090C112047F62512C0F67E
:1034D0000002515C0844704744F21C50C2F20000E4
:1034E0000168081A18BF0120704700002DE9F0415B
:1034F0009AB090460D460646002100BF705C092830
:1035000006D0202804D08D4201D00131F6E72946AB
:10351000B9B1304601F090FF98B16C46074620469D
:103520006821FCF780FE30462946224601F0FCFF68
:1035300038B16946B847C8F8000000201AB0BDE8A5
:10354000F0814FF0FF301AB0BDE8F0812DE9F0476F
:1035500082B00446DDF83090DDE90A8A1C301D4651
:1035600016460F4602F01AFD284623214246C4E9BA
:103570000A76C4E90C5802F06DFE04F128030FCB63
:103580001A4446F6F133043AC0F6000302F03EFC5A
:1035900046F699626062002704F15400C0F600020A
:1035A0002146234684F83EA084F83DA02764C4E960
:1035B0001399A76384F83C70C4E9227700970197B8
:1035C00003F084FD44F22450C2F20000016809B106
:1035D0002046884702B0BDE8F087000080B5DDF8DE
:1035E00008C000F1240E0CF0FE0C80F811C01C3055
:1035F0004FF0000C8EE80E1002F0D4FC80BD0000ED
:1036000080B51C3002F03CFD80BD000080B582B06A
:1036100047F62C20C0F60000019001F033F8019825
:10362000002100F03FFF02B080BD000010B54EF653
:1036300029541CA0CEF2000402F08EFC21781CA0BC
:1036400002F08AFC2078C00702D01FA002F084FCA0
:103650002078800702D51FA002F07EFC207840076A
:1036600002D51FA002F078FC2078000702D520A028
:1036700002F072FC2078C00602D520A002F06CFC9B
:1036800094F90000B0F1FF3F06DD47F6CC30C0F6FC
:10369000000002F061FC10BDD4F80F1019A002F078
:1036A0005BFC10BD627573206661756C743A0A002C
:1036B0005343425F434653525F424653523A307837
:1036C00025303258200000004942555345525220BF
:1036D000000000005052454349534552522000001B
:1036E000494D505245434953455252200000000075
:1036F000554E53544B4552522000000053544B45F5
:10370000525220005343422D3E424641523A253008
:1037100038580A0080B501F0FDF9002080BD000096
:1037200080B501F0F5FB002080BD000084B003905F
:103730008DF80B1000200190039900910190FFE794
:1037400001989DF80B10884218D2FFE7FFE744F676
:103750000000C4F2000000684006002801D4FFE722
:10376000F5E700980199405C44F60401C4F20001B9
:103770000860FFE7019801300190E1E704B070476D
:1037800080B582B069461E2048600520086047F673
:103790008720C0F6000043F66101C0F60001002258
:1037A00040F6B83303F0F8F9014640F21810C2F2BF
:1037B00000000160006840B1FFE740F21810C2F25B
:1037C0000000006803F028FBFFE747F67F20C0F603
:1037D00000000121002202F0CFFF40F20011C2F2EE
:1037E0000001086002B080BD80B582B040F23C00AC
:1037F000C2F2000000F08AFE40F20400C2F20000B3
:1038000000F084FE40F2DC20C2F2000004210191AD
:10381000FEF7B8FD019A3821C4F200014FF4FA70A6
:10382000086040F23420C2F2000040F2DC01C2F233
:103830000001FDF765F940F26420C2F20000026861
:10384000116841F0020111600268116821F0040161
:1038500011600168086820F00800086002B080BDAF
:1038600080B588B0079000208DF81B0044F6C41185
:10387000C2F200018A68FF2050708A68107002202E
:10388000487147F65420C0F6000002F065FBFFE7E0
:1038900040F2D820C2F20000002102F019F80146DF
:1038A00040F21C00C2F2000000F014FF0146059136
:1038B00038B3FFE70598012804D0FFE705980228F0
:1038C00016D037E044F6C411C2F200018A684B7981
:1038D0000420D05448790130487101228DF81B2012
:1038E00040F2D820C2F20000002103F031FF21E0B5
:1038F00040F2D820C2F200000022114603F028FF57
:1039000018E040F2D820C2F20000002101F0E0FFF0
:1039100078B1FFE744F6C411C2F200018A684B791E
:103920000420D05448790130487101208DF81B00E3
:10393000FFE7FFE740F2D820C2F20000012101F0CA
:10394000C7FF014640F21C00C2F20000083000F040
:10395000C1FE0146049138B3FFE70498012804D062
:10396000FFE70498022816D037E044F6C411C2F2EB
:1039700000018A684B790320D0544879013048719E
:1039800001228DF81B2040F2D820C2F2000011461F
:1039900003F0DEFE21E040F2D820C2F20000012157
:1039A000002203F0D5FE18E040F2D820C2F2000059
:1039B000012101F08DFF78B1FFE744F6C411C2F296
:1039C00000018A684B790320D0544879013048714E
:1039D00001208DF81B00FFE7FFE740F2D820C2F27C
:1039E0000000022101F074FF014640F22C00C2F2F7
:1039F0000000083000F06EFE0146039130B3FFE78F
:103A00000398012804D0FFE70398022815D035E079
:103A100044F6C411C2F2000188684B790122C254F5
:103A20004879013048718DF81B2040F2D820C2F24D
:103A30000000022103F08CFE20E040F2D820C2F208
:103A400000000221002203F083FE17E040F2D8209C
:103A5000C2F20000022101F03BFF70B1FFE744F623
:103A6000C412C2F20002916853790120C8545179FE
:103A7000013151718DF81B00FFE7FFE740F2D820BC
:103A8000C2F20000032101F023FF014640F22C00A6
:103A9000C2F2000000F01EFE0146029138B3FFE7BB
:103AA0000298012804D0FFE70298022816D037E0D8
:103AB00044F6C411C2F200018A684B790220D05446
:103AC00048790130487101228DF81B2040F2D8203E
:103AD000C2F20000032103F03BFE21E040F2D820B7
:103AE000C2F200000321002203F032FE18E040F28F
:103AF000D820C2F20000032101F0EAFE78B1FFE70E
:103B000044F6C411C2F200018A684B790220D054F5
:103B100048790130487101208DF81B00FFE7FFE76D
:103B200040F20010C2F20000006802F0B9FE02305C
:103B300000284BD1FFE79DF81B00012843D1FFE788
:103B400044F6C411C2F2000101918A684B790D203C
:103B5000D0544879013048718A684B790A20D05492
:103B600048790130487140F21410C2F20000006838
:103B7000002102F047FE48B9FFE744F6C411C2F243
:103B8000000188684979FFF7D1FD0BE0052003F0BB
:103B9000E9F844F6C411C2F2000188684979FFF7D8
:103BA000C5FDFFE740F24C40C2F20000006802F0A1
:103BB00003FE44F6C411C2F2000102204871002045
:103BC0008DF81B00FFE703F099F9D2E040F20410F2
:103BD000C2F20000406840F6B93188420FD3FFE7D7
:103BE00044F6C411C2F200018A684B790520D05412
:103BF00048790130487101208DF81B002BE040F21C
:103C00000410C2F200004068C7280FD8FFE744F64E
:103C1000C411C2F200018A684B790620D054487959
:103C20000130487101208DF81B0013E040F20410B0
:103C3000C2F200004068C8280BD3FFE740F204102E
:103C4000C2F20000406840F6B831884201D8FFE770
:103C5000FFE7FFE7FFE740F20410C2F20000006850
:103C600040F6B93188420FD3FFE744F6C411C2F2DF
:103C700000018A684B790820D05448790130487196
:103C800001208DF81B002BE040F20410C2F200006E
:103C90000068C7280FD8FFE744F6C411C2F200013C
:103CA0008A684B790720D054487901304871012047
:103CB0008DF81B0013E040F20410C2F2000000680F
:103CC000C8280BD3FFE740F20410C2F200000068DE
:103CD00040F6B831884201D8FFE7FFE7FFE7FFE78A
:103CE0009DF81B00012843D1FFE744F6C411C2F23E
:103CF000000100918A684B790D20D0544879013039
:103D000048718A684B790A20D0544879013048714B
:103D100040F21410C2F200000068002102F072FDAF
:103D200048B9FFE744F6C411C2F200018868497936
:103D3000FFF7FCFC0BE0052003F014F844F6C41177
:103D4000C2F2000188684979FFF7F0FCFFE740F212
:103D50004C40C2F20000006802F02EFD44F6C4118F
:103D6000C2F200010220487100208DF81B00FFE71D
:103D7000FFE7192002F0F6FF8AE5000080B586B063
:103D800040F28C10C2F2000040F21C11C2F200019D
:103D9000642202F0E5FB47F6BF20C0F600000121D7
:103DA00003910022049202F0E7FC0399049A40F286
:103DB0008813C2F20003186047F6A220C0F6000084
:103DC00002F0DAFC0399049A40F24C43C2F2000379
:103DD000186047F6B420C0F6000002F0CDFC049B4A
:103DE00040F21411C2F20001086047F6AB20C0F6A1
:103DF000000005900C210A2202F05AFA049A0146AA
:103E0000059840F28013C2F2000319606B4614213A
:103E100059600321196043F67161C0F600014FF447
:103E2000806302F0B9FE014640F28410C2F2000045
:103E30000160006840B1FFE740F28410C2F2000068
:103E4000006802F0E9FFFFE740F25C30C2F20000D8
:103E500040F2D901C2F200010122FEF7B3FB44F6A1
:103E6000C410C2F2000003F061FC06B080BD000087
:103E700080B582B0019047F69220C0F6000002F0B3
:103E80006BF8FFE740F24C40C2F2000000684FF0D0
:103E9000FF31009102F0B6FC009940F28810C2F2A6
:103EA0000000006802F0AEFC44F6C410C2F200004C
:103EB000092101F029FD40B1FFE740F21410C2F2E0
:103EC0000000006802F078FCFFE7052002F04AFFDE
:103ED000D8E7000010B5844603684CF6CD40CCF618
:103EE000CC40A3FB000E03F00F001A094FEADE04DA
:103EF00004EB84040A2904BF4FEADE02A3EB44006A
:103F0000CCF8002010BD000010B544F29060C2F261
:103F10000000006890F82900800706D440F298104D
:103F2000C2F200000021017033E040F21C20C2F216
:103F30000000016839B140F29810C2F200008022FE
:103F4000FCF77CF925E001F0EDFA50B140F2981051
:103F5000C2F200000021017147F26D31C2F2680126
:103F60000DE040F2981046F67301C2F20000C0F274
:103F70002001C0F8031046F66611C7F26E3140F218
:103F80009814C2F2000401602046FCF763F93E2158
:103F9000215240F29810C2F2000010BD80B501F02D
:103FA00001FE80BD44F29061C2F20001096800F098
:103FB000010091F8292002F0FD0242EA400081F858
:103FC0002900704740F2D002C2F20002106040F2B5
:103FD000D400C2F20000016070470000B0B582B0AA
:103FE00047F6344047F6E441C0F60000C0F6000151
:103FF000FFF7E8FF0120802101F0BCFC44F290654E
:10400000C2F200052860F8B10A200621CDE90010AF
:1040100044F2810110A0C0F6000100224FF40073A9
:10402000002402F0B9FD2A6805460DA110460022C1
:10403000002302F0B1FB0120FFF7B4FF4DB1284689
:1040400002F0EAFE002404E007A001F085FF4FF033
:10405000FF34204602B0B0BD747368656C6C00001C
:1040600073687278000000006E6F206D656D6F726E
:104070007920666F72207368656C6C0A000000001E
:1040800044F29066C2F20006306847F6064590F8A2
:1040900029104FF0010841F001014FF00009C0F66E
:1040A00000050FF2003BBEA74FF0020A80F829106E
:1040B00002E000BF80F82880FFF770FF0028FBD4E3
:1040C000044630681B2CF5D090F82810022908D03F
:1040D000012940F070805B2C40F06B8080F828A0B4
:1040E000EAE7A4F14101022980F82890E4D3442CA6
:1040F00000F28880DFE814F045008B008B008B0015
:104100008B008B008B008B00C400FE006B008B00CB
:104110008B006B008B008B008B008B008B008B0067
:104120008B008B008B008B008B008B008B008B0037
:104130008B008B008B008B008B008B008B008B0027
:104140008B008B008B008B008B008B008B008B0017
:104150008B008B008B008B008B008B008B008B0007
:104160008B008B008B008B008B008B008B008B00F7
:104170008B008B008B008B008B008B008B0046002C
:10418000440199E7B0F87C10B0F87A209142BFF46E
:1041900093AF084490F82A1047F60840C0F6000094
:1041A00001F0DAFE3068B0F87C100131A0F87C1024
:1041B00082E780F828900D2C24D8DFE804F0072847
:1041C000282828282828619B0828280874E701F057
:1041D000A9F9012810D1306890F82900C00705D04E
:1041E00047F6CC30C0F6000001F0B6FE3068B0F8FB
:1041F0007A102A3001F0EAF8306854212A30FCF7AE
:1042000012F859E77F2C3BD0FF2C3FF455AFB0F8A4
:104210007A10502928BFA0F87A90B0F87C30B0F816
:104220007A209A4240F28280C11801F12B002A3193
:10423000D21A01F0F1FF3068B0F87C10084480F821
:104240002A40306890F82910C90707D0B0F87C10D0
:10425000084400F12A0155A001F07EFE3068B0F854
:104260007C40B0F87A0084426FD200BF284601F04B
:1042700073FE30680134B0F87A008442F6D364E00B
:10428000B0F87C1000293FF417AFB0F87A2001395C
:10429000531E9AB2A0F87A308BB29A42A0F87C10E2
:1042A00064D9C11801F12A002B31D21A01F0B4FFF0
:1042B0003068B0F87A10084480F82A903068B0F876
:1042C0007C10084400F12A01584601F045FE31688F
:1042D000B1F87C00B1F87A1088423FF6EDAE441E8A
:1042E000284601F039FE30680134B0F87A00844283
:1042F000F6D3E1E63068B0F87C1051B1002400BF7D
:10430000284601F029FE30680134B0F87C108C4258
:10431000F6D32A3003F028F9346804F12A00FBF7B9
:1043200099FFA4F87A00A4F87C00C5E6104480F850
:104330002A40306890F82900C00706D047F60840A8
:10434000C0F60000214601F007FE3068B0F87A1090
:10435000B0F87C200131A0F87A1089B201325029DE
:10436000A0F87C2028BFC0F87A90A5E6384601F076
:10437000F3FD3068B0F87A10084480F82A909BE684
:10438000B0F87C0000283FF497AE284601F0E4FD29
:104390003068B0F87C100139A0F87C108CE600BFC2
:1043A000082008000825732020080000257300005D
:1043B00010B54EF62C54CEF200042068800702D5CA
:1043C00010A001F0C9FD2068400011D514F8030CBD
:1043D000002818BFFFF72AF914F8040C002818BFAA
:1043E00000F028FF34F8020C002818BF03F02CF965
:1043F0002068B0F1FF3FC8BF10BD08A001F0ACFDC0
:1044000010BD00BF6661696C656420766563746F7A
:10441000722066657463680A000000006465627556
:1044200067206576656E740A0000000080B502A002
:1044300001F092FD002080BD48656C6C6F205254E5
:104440002D546872656164210A00000080B5FCF794
:10445000D7FEFEF7C9FAFEF779F9FEF711F9FEF774
:1044600091F9FEF7F7F9FEF715FA002080BD00007C
:1044700080B582B001908DF803109DF8030038B12B
:10448000FFE70199086889880122FCF79BFE06E096
:104490000199086889880022FCF794FEFFE702B0C2
:1044A00080BD000080B582B001908DF803109DF8AA
:1044B000030038B1FFE70199086889880122FCF7F9
:1044C00081FE06E00199086889880022FCF77AFEDF
:1044D000FFE702B080BD000080B582B001908DF88A
:1044E00003109DF8030038B1FFE701990868898837
:1044F0000122FCF767FE06E001990868898800221E
:10450000FCF760FEFFE702B080BD000080B586B01A
:10451000059005984068002849D0FFE70598406855
:10452000012844D0FFE70598406811283FD0FFE7F5
:104530000598406802283AD0FFE70598406812289D
:1045400035D0FFE7059840680021C1F2110188428B
:104550002DD0FFE7059840680021C1F22101884273
:1045600025D0FFE7059840680021C1F2310188425B
:104570001DD0FFE7059840680021C1F21201884272
:1045800015D0FFE7059840680021C1F2220188425A
:104590000DD0FFE7059840680021C1F23201884242
:1045A00005D0FFE705984068032804D1FFE7059888
:1045B00040680290FFE70598806850B1FFE70598D2
:1045C0008068012805D0FFE705988068022804D19B
:1045D000FFE7059880680390FFE70598C068022808
:1045E0000AD0FFE70598C068012805D0FFE70598C5
:1045F000C068032804D1FFE70598C0680490FFE76E
:1046000000208DF80300FFE79DF803000599096974
:10461000884234D2FFE7059800689DF8031000EB4C
:10462000C100808890B1FFE7059800689DF80310ED
:1046300000EBC100C08848B9FFE7059800689DF805
:10464000031000EBC10040680190FFE70598006887
:104650009DF8031050F8310001A9FCF723FC0598E0
:1046600000689DF8031000EBC1000021FFF734FF44
:10467000FFE79DF8030001308DF80300C4E706B0A2
:1046800080BD000080B586B0059002200390012017
:10469000029004900598406801900598006801A96F
:1046A000FCF700FC06B080BD82B000900098006866
:1046B000806800994968084204D0FFE701208DF81E
:1046C000070003E000208DF80700FFE79DF80700D2
:1046D00002B0704780B584B002908DF807100020BA
:1046E0008DF806008DF805000298FFF7DDFF8DF8C4
:1046F00006009DF807009DF8061048408DF805005B
:104700009DF80500012813D1FFE79DF8070020B9A7
:10471000FFE701208DF80F0013E09DF80700012846
:1047200004D1FFE702208DF80F000AE0FFE708E060
:104730009DF8050020B9FFE700208DF80F0000E08C
:10474000FFE79DF80F0004B080BD000080B584B085
:104750000390FFE747F62C20C0F6000001900021EF
:10476000FFF786FEC820029002F03CFA0198012172
:10477000FFF77EFE029802F035FAEBE72DE9F041F3
:1047800013A001F0E9FB40F2D00040F2D405C2F2E0
:104790000000C2F2000507682868874215D211A4FC
:1047A0000FF2440804E000BF2868083787420CD2A3
:1047B0003E68214630460222FBF753FD0028F3D025
:1047C0004046314601F0C8FBEEE70020BDE8F0812D
:1047D0002D2D46756E6374696F6E204C6973743A43
:1047E0000A0000005F5F000025730A002DE9F04F0A
:1047F00091B004AD0CA804212A4600F09BF82FA02C
:1048000037A2102101F0A8FB00F042FF36A001F012
:10481000A3FB002003E000BF039800284AD00CA9A6
:1048200000F098F8109903900129F5DB9DF8389075
:10483000DDF840A04FF0000B06E000BFFBF776FC70
:104840000BF1010BD345E7DA55F82B40FBF76AFC77
:1048500014F8041C01F07F014945EFD1A4F11407BD
:10486000FBF764FC04F10806304601F0D9FBD4F8EC
:10487000108040B124A0102110223B46CDF80080CA
:1048800001F06AFBDCE7304601F0D0FB044623A0D0
:10489000102110223B46CDF80080019401F05CFB12
:1048A000304602F07FFE47F6CC30C0F6000001F043
:1048B00053FBC5E7002011B0BDE8F08F252D2A2E4F
:1048C0007320202020202073657420202020737501
:1048D0007370656E64207468726561640A0000001C
:1048E0006576656E7400000020202D2D2D2D2D2D58
:1048F0002D2D2D2D202D2D2D2D2D2D2D2D2D2D2DF5
:104900002D2D2D0A00000000252D2A2E2A7320208F
:1049100030782530387820300A000000252D2A2EE6
:104920002A73202030782530387820253033643AB7
:104930000000000070B50646084614460D4601F01A
:1049400063FD0430C6E90004082000213572C6E981
:10495000030170BDF0B581B00646C86800240C6143
:1049600050B3087A0D46E0B134462F68002E08BFD8
:104970003C46FBF7D7FB36B114F8041C2A7A01F049
:104980007F01914215D16A68002100BF2468BC42B2
:1049900009D0EB684E1C42F821409E423146F5D1C9
:1049A00003E0002408E000240E46FBF7BFFB2E6165
:1049B00002E0FBF7BBFB0024204601B0F0BD000085
:1049C0002DE9F04F93B00DF118090EA805214A46C4
:1049D000FFF7B0FF31A03AA2102101F0BDFA00F0BC
:1049E00057FE39A001F0B8FA002002E00498002830
:1049F0004FD00EA9FFF7AEFF129904900129F5DB05
:104A00009DF840A0129E4FF0000B059606E000BFF7
:104A1000FBF78CFB0BF1010BB345E7DA59F82B40A0
:104A2000FBF780FB14F8041C01F07F015145EFD126
:104A3000A4F11407FBF77AFB04F10806304601F0F5
:104A4000EFFAB4F81680A58A0446304601F0EEFA73
:104A5000002C044609D023A0102110223B46CDE9AA
:104A60000085029401F078FA11E024A010211022B0
:104A70003B46CDE90085029401F06EFA304602F023
:104A800091FD47F6CC30C0F6000001F065FA059EB6
:104A9000C0E7002013B0BDE8F08F00BF252D2A2EFF
:104AA0007320656E7472792073697A6520737573EB
:104AB00070656E64207468726561640A00000000AD
:104AC0006D61696C626F7800202D2D2D2D20202DB9
:104AD0002D2D2D202D2D2D2D2D2D2D2D2D2D2D2D13
:104AE0002D2D0A00252D2A2E2A73202530346420EE
:104AF00020253034642025640A000000252D2A2E4C
:104B00002A73202530346420202530346420256425
:104B10003A00000080B540F24840C2F2000001684F
:104B200009A001F019FA44F6BC10C2F200000168B5
:104B30000AA001F011FA40F24440C2F200000168FC
:104B40000BA001F009FA80BD746F74616C206D6573
:104B50006D6F72793A2025640A00000075736564F0
:104B6000206D656D6F7279203A2025640A0000007F
:104B70006D6178696D756D20616C6C6F63617465D2
:104B800064206D656D6F72793A2025640A0000001B
:104B90002DE9F04F91B004AD0CA806212A46FFF78D
:104BA000C9FE31A037A2102101F0D6F900F070FD46
:104BB00037A001F0D1F9002003E000BF03980028DE
:104BC0004DD00CA9FFF7C6FE109903900129F5DB23
:104BD0009DF83890DDF840A04FF0000B06E000BFD4
:104BE000FBF7A4FA0BF1010BD345E7DA55F82B409C
:104BF000FBF798FA14F8041C01F07F014945EFD146
:104C0000A4F11407FBF792FA04F10806304601F00C
:104C100007FAB4F818800446304601F007FA002C71
:104C2000044609D020A0102110223B46CDF8008078
:104C3000019401F091F9D5E720A0102110223B4604
:104C4000CDF80080019401F087F9304602F0AAFC0B
:104C500047F6CC30C0F6000001F07EF9C2E7002034
:104C600011B0BDE8F08F00BF252D2A2E7320656E90
:104C70007472792073757370656E642074687265E0
:104C800061640A006D7367717565756500000000E9
:104C9000202D2D2D2D20202D2D2D2D2D2D2D2D2D6B
:104CA0002D2D2D2D2D0A0000252D2A2E2A7320258D
:104CB000303464202025640A00000000252D2A2EAF
:104CC0002A732025303464202025643A0000000037
:104CD0002DE9F04F93B006AD0EA803212A46FFF749
:104CE00029FE24A02CA2102101F036F900F0D0FCFE
:104CF0002BA001F031F9002002E000BF0598A8B315
:104D00000EA9FFF727FE129905900129F6DB9DF801
:104D10004070129E4FF000081BE000BFA9F1140480
:104D2000FBF704FAD9F814A099F813B009F10800B8
:104D300001F07CF9039022A01021102223461024B8
:104D4000CDE901AB009401F007F908F10108B04585
:104D5000D4DA55F82890FBF7E5F919F8041C01F0AE
:104D60007F01B942DAD0FBF7E1F9EEE7002013B09A
:104D7000BDE8F08F252D2A2E732020206F776E65D9
:104D8000722020686F6C642073757370656E642088
:104D90007468726561640A006D757465780000005E
:104DA000202D2D2D2D2D2D2D2D202D2D2D2D202D5A
:104DB0002D2D2D2D2D2D2D2D2D2D2D2D2D0A0000A0
:104DC000252D2A2E2A7320252D382E2A73202530B2
:104DD00034642025640A00002DE9F04F91B004AD41
:104DE0000CA802212A46FFF7A5FD31A037A2102109
:104DF00001F0B2F800F04CFC37A001F0ADF8002053
:104E000003E000BF039800284DD00CA9FFF7A2FDD6
:104E1000109903900129F5DB9DF83890DDF840A04A
:104E20004FF0000B06E000BFFBF780F90BF1010B20
:104E3000D345E7DA55F82B40FBF774F914F8041C56
:104E400001F07F014945EFD1A4F11407FBF76EF99A
:104E500004F10806304601F0E3F8B4F81080044687
:104E6000304601F0E3F8002C044609D020A01021C0
:104E700010223B46CDF80080019401F06DF8D5E793
:104E80001FA0102110223B46CDF80080019401F0B4
:104E900063F8304602F086FB47F6CC30C0F60000DF
:104EA00001F05AF8C2E7002011B0BDE8F08F00BF52
:104EB000252D2A2E73207620202073757370656E41
:104EC00064207468726561640A00000073656D6136
:104ED00070686F7265000000202D2D2D202D2D2D66
:104EE0002D2D2D2D2D2D2D2D2D2D2D0A00000000C9
:104EF000252D2A2E2A7320253033642025640A00AC
:104F0000252D2A2E2A7320253033642025643A006B
:104F10002DE9F04F91B004AD0CA801212A46FFF70E
:104F200009FD47F67530C0F6000033A2102101F0EC
:104F300013F800F0ADFB32A001F00EF8002002E003
:104F40000398002854D00CA9FFF704FD1099039092
:104F50000129F5DB9DF83880DDF840A04FF000090D
:104F600006E000BFFBF7E2F809F10109D145E7DAF5
:104F700055F829B0FBF7D6F81BF8041C01F07F01A7
:104F80004145EFD1ABF11404FBF7D0F89BF8296051
:104F90002BA0102110222346009600F0DDFF9BF885
:104FA000280000F00F01042906D840F3030027A1D0
:104FB00051F8200000F0D0FFDBF81C10002000BFEB
:104FC0000A5C0130232AFBD0DBE908246423101A91
:104FD0005843DBF810606430DBF83C701144B0FBE0
:104FE000F2F3891B1EA00097019400F0B5FFBBE708
:104FF000002011B0BDE8F08F746872656164000034
:10500000202D2D2D20202D2D2D2D2D2D2D202D2D04
:105010002D2D2D2D2D2D2D2D202D2D2D2D2D2D2DCD
:105020002D2D2D20202D2D2D2D2D2D20202D2D2DE4
:105030002D2D2D2D2D2D2D202D2D2D0A0000000084
:10504000252D2A2E2A73202533642000CE7B0008CC
:10505000E07B0008E97B0008F27B0008D77B0008B2
:105060002030782530387820307825303878202066
:105070002020253032642525202020307825303826
:105080007820253033640A002DE9F04F91B004AD4B
:105090000CA80A212A46FFF74DFC29A032A21021B4
:1050A00000F05AFF00F0F4FA31A000F055FF0020A4
:1050B0000FF2E00B02E000BF0398A0B30CA9FFF7CA
:1050C00049FC109903900129F6DB9DF83870DDF852
:1050D00040804FF0000919E0AAF11404FBF726F80C
:1050E000DAE9060610210090584610222346019660
:1050F00000F032FF1AF8030CC0070CBF2EA02BA043
:1051000000F02AFF09F10109C145D5DA55F829A0B7
:10511000FBF708F81AF8041C01F07F01B942DBD054
:10512000FBF704F8EEE701F037FF014647F6B93028
:10513000C0F6000000F010FF002011B0BDE8F08FB5
:10514000252D2A2E732020706572696F6469632093
:10515000202074696D656F75742020202020202028
:10516000666C61670A00000074696D65720000007A
:10517000202D2D2D2D2D2D2D2D2D2D202D2D2D2D79
:105180002D2D2D2D2D2D202D2D2D2D2D2D2D2D2D5C
:105190002D2D0A00252D2A2E2A732030782530380F
:1051A00078203078253038782000000061637469F9
:1051B00076617465640A0000646561637469766190
:1051C0007465640A0000000080B584B0002002907D
:1051D0000390FEF71BFA029A6946022048600720F6
:1051E000086047F63420C0F6000044F24D71C0F666
:1051F0000001962301F0D0FC014640F23C40C2F28F
:1052000000000160006840B1FFE740F23C40C2F29C
:105210000000006801F000FEFFE7FEF7B1FAFEF7BC
:10522000ADFD039804B080BD80B500F0C9FBFFF769
:10523000CBFF80BD10B54EF6285419A0CEF2000465
:1052400000F08AFE21781BA000F086FE2078C007BF
:1052500002D01EA000F080FE2078800702D51EA09C
:1052600000F07AFE2078000702D51EA000F074FE40
:105270002078C00602D51EA000F06EFE94F9000052
:10528000B0F1FF3F06DD47F6CC30C0F6000000F07D
:1052900063FE10BDE16819A000F05EFE10BD00BF06
:1052A0006D656D206D616E616765206661756C74FA
:1052B0003A0A00005343425F434653525F4D465300
:1052C000523A30782530325820000000494143439B
:1052D00056494F4C200000004441434356494F4C2F
:1052E000200000004D554E53544B455252200000B3
:1052F0004D53544B45525220000000005343422D61
:105300003E4D4D41523A253038580A002DE9F04FB4
:1053100081B004460078002842D040F2D00040F22C
:10532000D40BC2F20000C2F2000B0768DBF80000E9
:1053300087423AD247F6FF3A0025C0F6000A0FF23C
:1053400088084FF0000910E04846314602F068F93D
:10535000A842B8BF05464046314600F0FDFD00BFFB
:10536000DBF800000837874222D23E6851463046BB
:105370000622FAF776FF0028F2D120460636FAF721
:1053800069FF024620463146FAF76BFF0028E7D155
:10539000002DD9D13046FAF75DFF0546B146D3E777
:1053A00000F07EF801B0BDE8F08F4FF00009002555
:1053B000B9F1000F04D0204649462A4601F0F0FA20
:1053C00001B0BDE8F08F00BF25730A0010B582B0B0
:1053D000044601E00134013920782028FAD0092858
:1053E000F8D0B1B101AA2046FEF780F8A0B120465E
:1053F000017841F02001202901D00130F8E7002197
:10540000017007A0214600F0A7FD4FF0FF3002B069
:1054100010BD002002B010BD019802B010BD00BF49
:1054200025733A20636F6D6D616E64206E6F74201A
:10543000666F756E642E0A002DE9F04740F2D002C7
:10544000C2F20002156840F2D402C2F200021368F0
:105450009D4222D2146847F6FF368A46804601F103
:105460000609C0F6000602E00835A54215D22F68ED
:10547000314638460622FAF7F4FE0028F4D1B81D6A
:1054800041465246FAF7EDFE0028EDD117F8090023
:105490000028E9D16868BDE8F0870020BDE8F08702
:1054A0002DE9F04118A000F057FD40F2D00040F285
:1054B000D405C2F20000C2F20005076828688742DE
:1054C00019D247F6FF3447F6FB38C0F60004C0F6A1
:1054D000000803E02868083787420CD23E6821465E
:1054E00030460622FAF7BDFE0028F3D1B11D404632
:1054F00000F032FDEEE747F6CC30C0F6000000F0D9
:105500002BFD0020BDE8F08152542D546872656176
:1055100064207368656C6C20636F6D6D616E64737D
:105520003A0A0000012070472DE9F0419046002919
:105530004FF000024FF0000456D0002604E01E4653
:105540008E4251D28E424FD20B468E4288BF334696
:10555000013010F8017C202F01D0092F07D1B34270
:1055600004D000F8012C0136F2E700BF1E461A2CC9
:105570003DD28E4238D2222F1CD148F82400077821
:10558000731C03E010F8017F1E4601338B424FF07D
:10559000000538BF0125222F1ED08B421CD25C2F64
:1055A000F0D1074617F8015F222D04BF3846B31C1F
:1055B000E8E700BF013848F8240001340B468E426A
:1055C00088BF33460778092FBAD0202FB8D0B3420E
:1055D000B5D001300136F5E704F1010425B100F83A
:1055E000012B02368E42AFD32046BDE8F0810DA0DC
:1055F00000F0B2FC47F6FB360025C0F6000600BFFF
:1056000058F82510304600F0A7FC0135AC42F7D120
:1056100047F6CC30C0F6000000F09EFC2046BDE806
:10562000F08100BF546F6F206D616E7920617267E9
:10563000732021205765206F6E6C79205573653A71
:105640000A00000080B544F6B010C2F2000044F633
:105650004C11C2F20001642200F082FF44F2946017
:10566000C2F2000047F63821C0F6000100231A46B6
:1056700001F092F8FDF7EEF840F21C30C2F20000A3
:1056800040F2D801C2F200010122FCF79BFF80BD6D
:10569000B0B56FF00F0503A4204600F05DFC0135A6
:1056A000FAD3B0BD2D00000080B540F2AC21C2F2AB
:1056B0000001096842680A44824218D05388B3B98D
:1056C00040F2A823C2F200031B689A420FD040F2B6
:1056D000404CC2F2000CDCF80030934208BFCCF81A
:1056E0000000536843605268431A0A449360D0F83C
:1056F00008E001EB0E03834208BF80BD5A8802B167
:1057000080BD40F2404CC2F2000CDCF80020824226
:1057100008BFCCF8003042685A6040680844C0F8BE
:1057200008E080BD2DE9F04F8BB01E46169B044665
:10573000580647F6DF2047F6CE2BC0F60000C0F62D
:10574000000B58BF8346D8060D4648BF23F001031F
:10575000D8074FF0300108BF202198070A9204D4DF
:1057600000274FF0010C002210E0B2F1FF3F05DDF1
:10577000580707D41807F3D5202204E050420A90B6
:105780002D2200E02B224FF0000C01270A98DDF8B3
:1057900054800593CDE90121CDE9037CA8B10A9895
:1057A000C0B14FF000090AAF0DF1180A3846314672
:1057B000FEF790FB1BF800100A9A09F101000AF8A5
:1057C0000910002A8146F1D105E030208DF818003B
:1057D000012000E0002042464045C8BF0246DDF8F7
:1057E00014C0149F1CF0110FA7EB020102D0049EFD
:1057F000D6B11FE000230029C8BF0123039E334018
:10580000C91A01295FDB59423944049E891A2023B1
:10581000AC42A1F1010138BF2370002904F1010459
:10582000F6DC4FF0FF312EB9AC423CBF019B237038
:10583000013901345FEACC6302D5404515DB1EE037
:1058400001290FDB029B00BFAC42A1F1010138BF6F
:105850002370002904F10104F6DC4FF0FF314045CC
:1058600003DB0CE00139404509DA3023AC42A2F1F8
:10587000010238BF2370904204F10104F6DBB8F155
:10588000000F0ED001280CDB06AA013AAC423CBF47
:10589000135C2370B8F1000F04F1010401D001384A
:1058A000F4DC01290BDB481C202100BFAC42A0F135
:1058B000010038BF2170012804F10104F6DC204604
:1058C0000BB0BDE8F08F049E0139002EACD0B1E7DB
:1058D00083B001908DF803109DF803001F280ADCA7
:1058E000FFE7019800689DF80310C84000F0010030
:1058F0008DF80B0003E002208DF80B00FFE79DF808
:105900000B0003B07047000083B001908DF80310C6
:105910009DF803001F280ADCFFE7019800689DF846
:105920000310C84000F001008DF80B0003E00220D6
:105930008DF80B00FFE79DF80B0003B070470000E7
:1059400080B582B0022045F229214FF0140C00905E
:1059500006A0C0F6000100224FF48073CDF804C009
:1059600001F01AF901F058FA02B080BD6D61696E5C
:1059700000000000B0B501FB00F4204600F088FBF9
:10598000054620B128460021224600F063FC284647
:10599000B0BD0000B0B547F6284447F61040C0F649
:1059A0000004C0F60000A04228BFB0BD47F6104575
:1059B000C0F6000555F8040B8047A542FAD3B0BDE8
:1059C000B0B547F6304447F62840C0F60004C0F6AC
:1059D0000000A04228BFB0BD47F62845C0F600052C
:1059E00055F8040B8047A542FAD3B0BD80B5FAF74D
:1059F00099FB44F21051C2F200010A8801320A8078
:105A0000FAF794FB80BD000080B5FAF78BFB44F2F7
:105A10001051C2F200010A88013A13B2002B0A8029
:105A200002DDFAF783FB80BD00220A80FAF77EFBD5
:105A300040F25440C2F200000068002808BF80BD58
:105A400000F00EFE80BD000070B5002854D0044662
:105A500040F25C40C2F20000016809B1204688476C
:105A600040F2AC26C2F200063068A04244D840F2B0
:105A7000A820C2F200000068A04298BF70BD40F2AA
:105A8000B020C2F200004FF0FF31A4F10C0500F08D
:105A9000B9FE34F80A0C18B12888B0F5F55F0AD0C1
:105AA00016A000F059FA34F80A2C34F80C3C1AA06D
:105AB000294600F051FA4FF4F55044F80C0C40F22E
:105AC0004040C2F20000016844F6BC12A94288BFFF
:105AD000056054F8080C3168C2F200021368281AF5
