:020000040800F2
:10000000304B0020010100088D260008CB010008BC
:100010000D010008F9040008F1300008000000009C
:10002000000000000000000000000000952700080C
:10003000550600080000000053010008ED270008E5
:100040001B0100081B0100081B0100081B01000820
:100050001B0100081B0100081B0100081B01000810
:100060001B0100081B0100081B010008FD0400081B
:100070001B0100081B0100081B0100081B010008F0
:100080001B0100081B0100081B0100081B010008E0
:100090001B0100081B0100081B0100081B010008D0
:1000A0001B0100081B0100081B0100081B010008C0
:1000B0001B0100081B0100081B0100081B010008B0
:1000C0001B0100081B0100081B0100081B010008A0
:1000D0001B0100084D3000081B0100081B0100082F
:1000E0001B0100081B0100081B010008DFF80CD0F1
:1000F00000F0C6F800480047FD020008304B002021
:100100000648804706480047FEE7FEE7FEE7FEE7B1
:10011000FEE7FEE7FEE7FEE7FEE7FEE79D290008B3
:10012000ED000008EFF3108072B6704780F310887E
:100130007047334A1368012B04D04FF0010313605A
:10014000304A1060304A116030484FF080510160F1
:100150007047EFF3108272B62948016891B14FF0F1
:10016000000101602748016829B1EFF3098121E905
:10017000F00F00680160244909680968B1E8F00FD0
:1001800081F3098882F310884EF0040E70471E49EF
:1001900008601C494FF00000086019494FF0010049
:1001A00008601B484FF47F01D0F8002041EA0201AB
:1001B000016016484FF080510160164800680068E1
:1001C00080F3088861B662B670471EF0040F0CBF5A
:1001D000EFF30880EFF3098020E9F00F40F804ED19
:1001E0001EF0040F0CBF80F3088880F3098800B567
:1001F00005F02EFC5DF804EB4EF0040E7047000095
:100200006C460020644400207044002004ED00E0AF
:1002100020ED00E008ED00E0D2B201E000F8012B93
:10022000491EFBD270470022F6E710B513460A4676
:1002300004461946FFF7F0FF204610BD10B50446EE
:1002400004E00B7800F8013B03B1491C521EF8D2C0
:10025000204610BD421C10F8011B0029FBD1801A5A
:10026000704730B505460020034600E05B1C934212
:1002700005D2EC5CC85C201A01D1002CF6D130BD4F
:10028000064C074D06E0E06840F0010394E80700E3
:1002900098471034AC42F6D3FFF72CFF18790008CA
:1002A0003879000870B58C1810F8015B15F0070359
:1002B00001D110F8013B2A1106D110F8012B03E0FF
:1002C00010F8016B01F8016B5B1EF9D12B0705D407
:1002D0000023521E0DD401F8013BFAE710F8013B50
:1002E000CB1A921C03E013F8015B01F8015B521E6C
:1002F000F9D5A142D8D3002070BD000080B506F02A
:100300004DFF002080BD000080B584B00290002029
:100310000190029800688068C007002828D0FFE795
:1003200002980068816821F00101816000F0B0FF4F
:100330000190FFE7029800688068C007002816D087
:10034000FFE700F0A5FF0199401A03280ED3FFE74D
:100350000298816A41F0100181620298C16A41F0FD
:100360000101C16201208DF80F0005E0E2E7FFE71F
:1003700000208DF80F00FFE79DF80F0004B080BD4E
:1003800080B584B003900398406A02900298806A16
:1003900010F0500F29D1FFE70298816A41F40071F3
:1003A000816202980068806800F46020B0F5602FD8
:1003B00017D1FFE70298007B002812D1FFE70298CF
:1003C000816A21F4807181620298806AC0040028E9
:1003D00006D4FFE70298816A41F001018162FFE7DC
:1003E000FFE7029800F048FA08E00298006A006B04
:1003F00003990190084601998847FFE704B080BD42
:1004000080B582B001900198406A00900098816A9E
:1004100041F0400181620098C16A41F00401C1626B
:10042000009800F031FA02B080BD000080B582B0C3
:1004300001900198406A0090009800F021FA02B003
:1004400080BD000080B584B0029000200190009033
:10045000029800688068C007002844D1FFE702982E
:100460000068816841F00101816040F20000C2F241
:10047000000000684DF68361C4F21B31A0FB01014E
:10048000890C0091FFE70098002804D0FFE700984E
:1004900001380090F7E700F0FBFE0190FFE70298BB
:1004A00000688068C00700281CD1FFE700F0F0FE5C
:1004B0000199401A032814D3FFE70298816A41F09A
:1004C000100181620298C16A41F00101C162FFE737
:1004D0000298002180F82410FFE701208DF80F001A
:1004E00005E0DCE7FFE700208DF80F00FFE79DF84F
:1004F0000F0004B080BD0000FFE7FEE780B582B0CA
:1005000005F090FB0020C4F202000068800700287C
:1005100006D5FFE70420C4F2020002210160FFE7D4
:1005200040F2D010C2F200000078062829DCFFE774
:1005300000208DF80700FFE79DF80700032818DC6E
:10054000FFE79DF8070040F2B011C2F2000151F838
:10055000201040F2C012C2F2000252F820301944BA
:1005600042F82010FFE79DF8070001308DF80700E2
:10057000E2E740F2D010C2F20000017801310170D0
:100580003AE040F2D010C2F200000078072832D1E1
:10059000FFE700208DF80600FFE79DF8060003281E
:1005A0001BDCFFE79DF8060040F2C011C2F200011B
:1005B00051F82020D20840F2D813C2F2000343F8C9
:1005C00020209DF80600002241F82020FFE79DF83A
:1005D000060001308DF80600DFE740F2D010C2F2CD
:1005E00000000021017040F2D410C2F20000006847
:1005F00005F09AFFFFE7FFE705F02CFB02B080BD96
:1006000084B003900291019200930398C16B006C37
:10061000012202FA00F048600098039909684860D6
:1006200003984068102809D1FFE7019803990968E9
:100630008860029803990968C86008E002980399E5
:1006400009688860019803990968C860FFE704B0E9
:1006500070470000704700007047000083B0FFE75C
:1006600041F21800C4F20200016841F00401016087
:10067000006800F0040002900298FFE7FFE741F2F3
:100680001800C4F20200016841F00801016000682E
:1006900000F0080001900198FFE7FFE741F2180021
:1006A000C4F20200016841F010010160006800F02E
:1006B000100000900098FFE703B0704785B00390EA
:1006C000029100208DF807000090FFE7039890F852
:1006D0002400012804D1FFE702208DF81300C7E0B1
:1006E0000398012180F82410FFE7FFE70298406893
:1006F000062813D8FFE703980068406B02990A6840
:10070000496801EB810105391F238B40984302FAA8
:1007100001F108430399096848632BE00298406897
:100720000C2813D8FFE703980068006B02990A6849
:10073000496801EB810123391F238B40984302FA5A
:1007400001F1084303990968086312E003980068FF
:10075000C06A02990A68496801EB810141391F2387
:100760008B40984302FA01F1084303990968C86273
:10077000FFE7FFE7029800680A2812D3FFE7039813
:100780000068C06802990A68896802EB42021E3A52
:100790000723934098439140084303990968C86030
:1007A00010E003980068006902990A68896802EB02
:1007B00042020723934098439140084303990968F4
:1007C0000861FFE702980068102805D0FFE702984B
:1007D0000068112841D1FFE70398006842F2004108
:1007E000C4F2010188422ED1FFE7039800688068B7
:1007F0000002002826D4FFE703980068816841F4CE
:10080000000181600298006810281AD1FFE740F2C9
:100810000000C2F2000000684DF68361C4F21B3193
:10082000A0FB0101890C01EB810149000091FFE768
:100830000098002804D0FFE7009801380090F7E7FF
:10084000FFE7FFE708E00398816A41F02001816239
:1008500001208DF80700FFE7FFE7FFE7039800217D
:1008600080F82410FFE79DF807008DF81300FFE7DC
:100870009DF8130005B0704781B0009001B070473B
:1008800081B0009001B0704781B0009001B0704716
:1008900080B588B0069000208DF817000490039072
:1008A00002900698002804D1FFE701208DF81F0070
:1008B000F8E006988068002807D0FFE70698007DDA
:1008C000002801D0FFE7FFE7FFE70698806A0028CD
:1008D0000AD1FFE706980021C162069880F824102B
:1008E000069800F0E3F8FFE70698FFF70DFD8DF896
:1008F00017000698806AC006002800F1C580FFE74F
:100900009DF81700002840F0BF80FFE70698806A36
:1009100040F0020020F488500699886206984168E9
:10092000C2691143007B41EA4000039908430390E8
:10093000069880680121B0F5807F019108D0FFE71B
:10094000069880680138B0FA80F040090190FFE70E
:1009500001980499C00741F48072002818BF11461D
:1009600004910698007D01281FD1FFE70698007BBF
:1009700000280ED1FFE7069880694EF20001CFF6FD
:10098000FF7101EB40300499084340F4006004908B
:100990000AE00698816A41F0200181620698C16AE6
:1009A00041F00101C162FFE7FFE706980068406877
:1009B00020F469400499084306990968486006983C
:1009C000006880684FF2FD71CFF6E171084003992D
:1009D0000843069909688860069880680121B0F587
:1009E000807F009108D0FFE7069880680138B0FA50
:1009F00080F040090090FFE7009800F00100002817
:100A000018BF4FF48070B0F5807F09D1FFE70698DA
:100A100000690021CFF6F07101EB00500290FFE772
:100A200006980068C06A20F470000299084306998D
:100A30000968C86206980068806840F6FE61CFF6D3
:100A40001F710840039988420CD1FFE706980021E6
:100A5000C1620698806A40F0010020F00200069909
:100A6000886210E00698806A40F0100020F00200D2
:100A7000069988620698C16A41F00101C1620120AD
:100A80008DF81700FFE708E00698816A41F0100131
:100A9000816201208DF81700FFE79DF817008DF89F
:100AA0001F00FFE79DF81F0008B080BD80B588B02B
:100AB0000790002006900590049003900798006826
:100AC00042F20041C4F20101884254D1FFE7FFE73E
:100AD00041F21800C4F20200016841F400710160A3
:100AE000006800F4007002900298FFE7FFE741F20F
:100AF0001800C4F20200016841F0040101600068BE
:100B000000F0040001900198FFE73F2003900320CC
:100B1000049040F60000C4F2010003A900F006FAB8
:100B200040F2A820C2F200000821C4F202010160D4
:100B30000021416081608021C1604FF4007101613A
:100B40004FF400614161202181614FF40051C16186
:100B500000F02AF9002803D0FFE7FFF77DFDFFE74B
:100B6000FFE7079840F2A821C2F20001016207984E
:100B70004862FFE7FFE708B080BD000080B586B09F
:100B800004900391029200208DF8070004980068F9
:100B900042F20041C4F20101884209D0FFE7049803
:100BA000006842F60001C4F20101884209D1FFE762
:100BB00042F20440C4F20100006800F4702000908A
:100BC00002E000200090FFE70098002840F0DE805F
:100BD000FFE7FFE7049890F82400012804D1FFE71D
:100BE00002208DF81700DAE00498012180F8241023
:100BF000FFE7FFE70498FFF725FC8DF807009DF855
:100C00000700002840F0BA80FFE70498806A40F4AB
:100C1000807040F6016188430499886204980068F6
:100C200042F60001C4F20101884209D1FFE742F215
:100C30000440C4F20100006810F4702F04D019E0E1
:100C40000020002816D1FFE70498816A21F4801162
:100C500081620498006840684005002809D5FFE7D4
:100C60000498806A40F4805020F40050049988620F
:100C7000FFE72DE00498816A41F4801181620498B5
:100C8000006842F20041C4F20101884209D0FFE746
:100C90000498006842F60001C4F20101884209D1BB
:100CA000FFE742F20440C4F201000068400500285A
:100CB00004D40CE00120002809D1FFE70498806AE1
:100CC00040F4805020F4005004998862FFE7FFE769
:100CD0000498806AC004002806D5FFE70498C16A1A
:100CE00021F00601C16203E004980021C162FFE720
:100CF000FFE70498002180F82410FFE70498006AB9
:100D000040F28131C0F6000181620498006A40F22D
:100D10002D41C0F60001C1620498006A40F2014111
:100D2000C0F600010163049800686FF002010160E1
:100D300004980068816841F48071816004980168BA
:100D4000006A4C31039A029B00F08AF80499096802
:100D5000896801F46021B1F5602F07D1FFE704989D
:100D60000068816841F4A001816006E00498006891
:100D7000816841F480118160FFE706E0FFE7049895
:100D8000002180F82410FFE7FFE703E001208DF841
:100D90000700FFE79DF807008DF81700FFE79DF8B3
:100DA000170006B080BD000080B583B00190002020
:100DB00000900198002804D1FFE701208DF80B0076
:100DC00049E0019801684FF6F872CBF6FD721144C4
:100DD0004CF6CD42CCF6CC42A1FB02126FF00303DD
:100DE00003EA9202026401980022C4F20202C26382
:100DF0000198022280F82120019800680068009084
:100E0000009843F6F072904300900198426883681E
:100E1000D0F80CC0D0F810E01A4342EA0C0242EAC3
:100E20000E0243691A4383691A43C0691043009A4A
:100E3000104300900098019A1268106001980022F7
:100E400082630198012380F82130019880F82020E6
:100E50008DF80B20FFE79DF80B0003B080BD00006C
:100E600080B586B0049003910292019300208DF822
:100E70000300FFE7049890F82000012804D1FFE761
:100E800002208DF817004DE00498012180F8201011
:100E9000FFE7FFE7049890F82100012833D1FFE72E
:100EA0000498022180F8211004980021816304989D
:100EB0000068016821F00101016004980399029A19
:100EC000019BFFF79DFB0498C06A002807D0FFE74D
:100ED00004980068016841F00E0101600CE004987C
:100EE0000068016821F0040101600498006801684D
:100EF00041F00A010160FFE704980068016841F0D1
:100F00000101016009E0FFE70498002180F820104A
:100F1000FFE702208DF80300FFE79DF803008DF83E
:100F20001700FFE79DF8170006B080BD90B00F9046
:100F30000E9100200D900990FFE70E9800680D9922
:100F4000C840002800F08781FFE70D98012101FAD1
:100F500000F00C900E9800680C9908400B900B98CC
:100F60000C99884240F07381FFE70E984068002892
:100F7000059051D0FFE7059801283AD0FFE7059882
:100F800002283FD0FFE70598032860D0FFE70598C7
:100F9000112832D0FFE70598122838D0FFE700204B
:100FA000C1F211000599814236D0FFE70020C1F25D
:100FB0001200059981422FD0FFE70020C1F22100E5
:100FC0000599814228D0FFE70020C1F2220005994F
:100FD000814221D0FFE70020C1F231000599814212
:100FE0001AD0FFE70020C1F232000599814213D0E8
:100FF00030E00E98C06809902DE00E98C06804306B
:10100000099028E00E98C0680830099023E00E98F7
:10101000C0680C3009901EE00E988068002803D14B
:10102000FFE70420099011E00E988068012806D19E
:10103000FFE7082009900C980F99086105E0082047
:1010400009900C980F994861FFE7FFE703E0002043
:10105000099000E0FFE70B98FF2803D8FFE70F98FF
:10106000049003E00F9804300490FFE70498089080
:101070000B98FF2804D8FFE70D988000039006E046
:101080000D986FF01F0101EB80000390FFE70398BC
:1010900007900898006807990F228A409043099AA0
:1010A00002FA01F10843089908600E98C079C00659
:1010B000002840F1CB80FFE7FFE741F21800C4F2BF
:1010C0000200016841F001010160006800F00100C8
:1010D00006900698FFE70D9820F003000821C4F25F
:1010E000010140580A900D9800F0030080000F2184
:1010F00001FA00F00A9921EA00000A900F9840F6E0
:101100000001C4F20101884203D1FFE700200290F0
:1011100026E00F9840F60041C4F20101884203D155
:10112000FFE70120019018E00F9841F20001C4F29E
:101130000101884203D1FFE7022000900AE00F98E6
:1011400041F20041C4F201010422884208BF032297
:101150000092FFE700980190FFE701980290FFE7F7
:1011600002980D9901F00301890088400A9908430B
:101170000A900A980D9921F003010822C4F2010295
:1011800088500E988079C007002809D0FFE70B9897
:1011900040F20041C4F201010A681043086009E00E
:1011A0000B9840F20041C4F201010A6822EA0000F3
:1011B0000860FFE70E9880798007002809D5FFE7CF
:1011C0000B9840F20441C4F201010A681043086020
:1011D00009E00B9840F20441C4F201010A6822EAD6
:1011E00000000860FFE70E988079C006002809D546
:1011F000FFE70B9840F20841C4F201010A6810436E
:10120000086009E00B9840F20841C4F201010A6845
:1012100022EA00000860FFE70E9880798006002827
:1012200009D5FFE70B9840F20C41C4F201010A68AE
:101230001043086009E00B9840F20C41C4F2010130
:101240000A6822EA00000860FFE7FFE7FFE70D9861
:1012500001300D9071E610B07047000082B0134667
:101260008C460190ADF802108DF801209DF8010028
:10127000002805D0FFE7BDF802000199086105E0EC
:10128000BDF80200000401990861FFE702B0704751
:1012900044F22C70C2F200000068704780B582B042
:1012A00042F20000C4F20200016841F01001016046
:1012B000032000F0A7F80020019000F007F800904C
:1012C00000F03EF8019802B080BD000080B582B009
:1012D000009040F20000C2F20000006840F25C1191
:1012E000C2F2000109784FF47A72B2FBF1F1B0FB5F
:1012F000F1F000F09FFD002804D0FFE701208DF8F9
:10130000070018E000980F280DD8FFE700994FF06C
:10131000FF30002200F056F8009840F26011C2F24F
:101320000001086003E001208DF8070003E00020C1
:101330008DF80700FFE79DF8070002B080BD0000B0
:1013400080B584B0FFE741F21800C4F202000168E2
:1013500041F001010160006800F001000390039872
:10136000FFE7FFE741F21C00C4F20200016841F010
:1013700080510160006800F0805002900298FFE701
:10138000052000F03FF8FFE70420C4F201000168E7
:101390000191019921F0E0610191019941F0007101
:1013A000019101990160FFE704B080BD80B582B072
:1013B00001468DF807009DF90700009101F0C4FE79
:1013C00002B080BD80B588B003468DF81F0006913D
:1013D000059200200490039301F0D0FE04909DF943
:1013E0001F000499069A059B0290084611461A466A
:1013F00001F04EF9029901900846019901F0C6FEEC
:1014000008B080BD80B582B00190019801F0E0FE87
:1014100002B080BD80B584B002900191029800288E
:1014200004D1FFE701208DF80F001BE1019842F283
:101430000001C4F20201096801F00701884216D9CF
:10144000FFE742F20000C4F20200016821F0070148
:10145000019A11430160006800F007000199884279
:1014600004D0FFE701208DF80F00FBE0FFE70298B2
:101470000078800700282AD5FFE702980078400707
:10148000002809D5FFE741F20400C4F20200016818
:1014900041F4E0610160FFE702980078000700284E
:1014A00009D5FFE741F20400C4F20200016841F4EB
:1014B00060510160FFE741F20400C4F202000168DC
:1014C00021F0F001029A926811430160FFE702984F
:1014D0000078C007002860D0FFE702984068012824
:1014E0000ED1FFE741F20000C4F202000068800361
:1014F000002804D4FFE701208DF80F00B2E021E0BE
:101500000298406802280ED1FFE741F20000C4F2C1
:10151000020000688001002804D4FFE701208DF854
:101520000F009FE00DE041F20000C4F202000068ED
:101530008007002804D4FFE701208DF80F0091E018
:10154000FFE7FFE741F20400C4F20200016821F066
:101550000301029A526811430160FFF799FE00905F
:10156000FFE741F20400C4F20200006800F00C0042
:1015700002994968B0EB810F0ED0FFE7FFF788FEB4
:101580000099401A41F28931884204D3FFE70320D1
:101590008DF80F0066E0E4E7FFE7019842F20001F2
:1015A000C4F20201096801F00701884216D2FFE780
:1015B00042F20000C4F20200016821F00701019A22
:1015C00011430160006800F007000199884204D0CF
:1015D000FFE701208DF80F0044E0FFE70298007854
:1015E000400700280CD5FFE741F20400C4F20200D6
:1015F000016821F4E061029AD26811430160FFE7BB
:1016000002980078000700280DD5FFE741F204009A
:10161000C4F20200016821F46051029A126941EAA1
:10162000C2010160FFE700F04BF841F20401C4F28F
:1016300002010968C9B2090947F27442C0F6000202
:10164000515CC84040F20001C2F20001086040F263
:101650006010C2F200000068FFF738FE00218DF82C
:101660000F10FFE79DF80F0004B080BD40F20000AE
:10167000C2F200000068704780B5FFF7F7FF41F243
:101680000401C4F202010968C1F3022147F2844255
:10169000C0F60002515CC84080BD000080B5FFF775
:1016A000E5FF41F20401C4F202010968C1F3C2215D
:1016B00047F28442C0F60002515CC84080BD000081
:1016C0008BB040F60E70C1F210000A9040F60A305E
:1016D000C0F60C50099040F20670C0F60810089051
:1016E00040F20230C0F20450079040F20120ADF801
:1016F0001A0000200590049003900290019041F29E
:101700000400C4F2020000680590059800F00C0087
:101710000146002800913DD0FFE70098042804D03E
:10172000FFE70098082806D035E041F20020C0F21B
:101730007A00019035E00598C0F3834007A9085C62
:1017400002909DF81600C007002818D0FFE741F26C
:101750000400C4F20200006800F400300DF11A0128
:1017600041EA504000780490029841F20021C0F212
:101770007A0148430499B0FBF1F0039007E0029826
:1017800040F60011C0F23D0148430390FFE7039883
:10179000019006E0FFE741F20020C0F27A000190DC
:1017A000FFE701980BB0704780B586B004900498AD
:1017B000002804D1FFE701208DF8170035E30498D5
:1017C0000078C007002800F0B180FFE741F2040074
:1017D000C4F20200006800F00C00042813D0FFE7F8
:1017E00041F20400C4F20200006800F00C00082876
:1017F0001CD1FFE741F20400C4F202000068C003FC
:10180000002813D5FFE741F20000C4F2020000688F
:101810008003002809D5FFE704984068002804D118
:10182000FFE701208DF81700FFE27EE0FFE7049854
:101830004068B0F5803F09D1FFE741F20000C4F2F3
:101840000200016841F48031016033E0049840688F
:1018500000280DD1FFE741F20000C4F20200016848
:1018600021F480310160016821F48021016020E0D1
:1018700004984068B0F5A02F0DD1FFE741F20000B9
:10188000C4F20200016841F480210160016841F462
:10189000803101600CE041F20000C4F202000168F6
:1018A00021F480310160016821F480210160FFE7AB
:1018B000FFE7FFE7FFE70498406800281AD0FFE73A
:1018C000FFF7E6FC0390FFE741F20000C4F20200DC
:1018D0000068800300280CD4FFE7FFF7D9FC0399C8
:1018E000401A652804D3FFE703208DF817009CE217
:1018F000EAE719E0FFF7CCFC0390FFE741F20000B4
:10190000C4F202000068800300280CD5FFE7FFF74F
:10191000BFFC0399401A652804D3FFE703208DF824
:10192000170082E2EAE7FFE7FFE7FFE704980078A5
:101930008007002840F18E80FFE741F20400C4F2E6
:101940000200006810F00C0F13D0FFE741F2040012
:10195000C4F20200006800F00C00082829D1FFE75B
:1019600041F20400C4F202000068C003002820D441
:10197000FFE741F20000C4F202000068800700287F
:1019800009D5FFE704980069012804D0FFE701208A
:101990008DF8170049E241F20000C4F2020001682C
:1019A00021F0F801049A526941EAC2010160FFE79F
:1019B0004FE00498006900282BD0FFE70020C4F214
:1019C000422001210160FFF763FC0390FFE741F231
:1019D0000000C4F202000068800700280CD4FFE772
:1019E000FFF756FC0399401A032804D3FFE70320AE
:1019F0008DF8170019E2EAE741F20000C4F2020094
:101A0000016821F0F801049A526941EAC2010160BB
:101A10001EE00020C4F2422000210160FFF738FCE4
:101A20000390FFE741F20000C4F202000068800763
:101A300000280CD5FFE7FFF72BFC0399401A032879
:101A400004D3FFE703208DF81700EEE1EAE7FFE794
:101A5000FFE7FFE7049800780007002849D5FFE773
:101A600004988069002823D0FFE740F28040C4F248
:101A7000422001210160FFF70BFC0390FFE741F2D8
:101A80002400C4F202000068800700280CD4FFE79D
:101A9000FFF7FEFB0399401A032804D3FFE7032056
:101AA0008DF81700C1E1EAE7012000F055FE1FE0C4
:101AB00040F28040C4F2422000210160FFF7E8FBC1
:101AC0000390FFE741F22400C4F20200006880079F
:101AD00000280CD5FFE7FFF7DBFB0399401A03282A
:101AE00004D3FFE703208DF817009EE1EAE7FFE744
:101AF000FFE7049800784007002840F1DA80FFE70C
:101B000000208DF8070041F21C00C4F202000068BA
:101B1000C000002813D4FFE7FFE741F21C00C4F225
:101B20000200016841F080510160006800F08050BF
:101B300000900098FFE701208DF80700FFE747F2CB
:101B40000000C4F200000068C005002822D4FFE7AE
:101B500047F20000C4F20000016841F480710160A6
:101B6000FFF796FB0390FFE747F20000C4F2000086
:101B70000068C00500280CD4FFE7FFF789FB039934
:101B8000401A652804D3FFE703208DF817004CE1C5
:101B9000EAE7FFE7FFE70498C068012809D1FFE7FB
:101BA00041F22000C4F20200016841F0010101602D
:101BB00032E00498C06800280DD1FFE741F2200010
:101BC000C4F20200016821F001010160016821F006
:101BD000040101601FE00498C06805280DD1FFE7EB
:101BE00041F22000C4F20200016841F004010160EA
:101BF000016841F0010101600CE041F22000C4F2F3
:101C00000200016821F001010160016821F0040176
:101C10000160FFE7FFE7FFE7FFE70498C0680028DF
:101C20001CD0FFE7FFF734FB0390FFE741F22000F1
:101C3000C4F202000068800700280ED4FFE7FFF717
:101C400027FB0399401A41F28931884204D3FFE708
:101C500003208DF81700E8E0E8E71BE0FFF718FB2A
:101C60000390FFE741F22000C4F202000068800701
:101C700000280ED5FFE7FFF70BFB0399401A41F24E
:101C80008931884204D3FFE703208DF81700CCE0A8
:101C9000E8E7FFE79DF80700012809D1FFE741F2D7
:101CA0001C00C4F20200016821F080510160FFE7CE
:101CB000FFE70498C069002800F0B380FFE741F215
:101CC0000400C4F20200006800F00C00082800F0D4
:101CD0008280FFE70498C06902285CD1FFE760209A
:101CE000C4F2422000210160FFF7D2FA0390FFE71F
:101CF00041F20000C4F202000068800100280CD507
:101D0000FFE7FFF7C5FA0399401A032804D3FFE75A
:101D100003208DF8170088E0EAE70498006AB0F520
:101D2000803F0CD1FFE741F20400C4F202000168D9
:101D300021F40031049A926811430160FFE741F2F7
:101D40000400C4F20200016821F47411049A136AB9
:101D5000526A1A43114301606020C4F242200121FB
:101D60000160FFF795FA0390FFE741F20000C4F22B
:101D700002000068800100280CD4FFE7FFF788FA12
:101D80000399401A032804D3FFE703208DF81700B6
:101D90004BE0EAE71EE06020C4F24220002101602F
:101DA000FFF776FA0390FFE741F20000C4F2020069
:101DB0000068800100280CD5FFE7FFF769FA039956
:101DC000401A032804D3FFE703208DF817002CE006
:101DD000EAE7FFE724E00498C069012804D1FFE79F
:101DE00001208DF8170020E041F20400C4F2020047
:101DF00000680290029800F480300499096A8842D1
:101E000008D1FFE7029800F470100499496A8842EB
:101E100004D0FFE701208DF8170006E0FFE7FFE799
:101E2000FFE700208DF81700FFE79DF8170006B0C8
:101E300080BD000080B582B00190019800F0ACFC3C
:101E400002B080BD85B003900291FFE7039890F83F
:101E50003C00012804D1FFE702208DF8130039E08F
:101E60000398012180F83C10FFE7FFE70398022167
:101E700080F83D100398006840680190039800685E
:101E800080680090019820F070000190029800682E
:101E9000019908430190009820F08000009002987A
:101EA00040680099084300900198039909684860C8
:101EB00000980399096888600398012180F83D1013
:101EC000FFE70398002180F83C10FFE700208DF821
:101ED0001300FFE79DF8130005B0704780B584B08C
:101EE00002900298002804D1FFE701208DF80F002E
:101EF00021E0029890F83D00002808D1FFE7029801
:101F0000002180F83C10029800F01AF8FFE70298D0
:101F1000022180F83D10029850F8041B01900846F9
:101F2000019900F06BFD0298012180F83D1000201E
:101F30008DF80F00FFE79DF80F0004B080BD000092
:101F400082B0019001980068B0F1804F10D1FFE796
:101F5000FFE741F21C00C4F20200016841F00101F8
:101F60000160006800F0010000900098FFE7FFE7C3
:101F700002B0704780B58AB008900791FFE70898D3
:101F800090F83C00012804D1FFE702208DF82700DB
:101F9000B7E00898012180F83C10FFE7FFE70898B8
:101FA000022180F83D100898006880680690069825
:101FB00020F077000690069820F47F40069006985F
:101FC000089909688860079800680028059000F063
:101FD0008280FFE7059810287DD0FFE7059820282C
:101FE00079D0FFE70598302875D0FFE7059840289D
:101FF00061D0FFE7059850283DD0FFE7059860289D
:1020000049D0FFE7059870280BD0FFE70598B0F599
:10201000805F05D0FFE70598B0F5005F19D061E05B
:1020200061E00898006807994A688B68C96804915C
:102030001946049B00F076FD0898006880680690B9
:10204000069840F07700069006980899096888601D
:1020500049E00898006807994A688B68C968039145
:102060001946039B00F05EFD08980068816841F402
:102070008041816037E00898006807994A68C9681C
:1020800002911146029A00F009FF08980068502159
:1020900000F062FD27E00898006807994A68C9685F
:1020A00001911146019A00F021FF08980068602113
:1020B00000F052FD17E00898006807994A68C9685F
:1020C00000911146009A00F0E9FE0898006840214E
:1020D00000F042FD07E0089800680799096800F0E1
:1020E0003BFD00E0FFE70898012180F83D10FFE785
:1020F0000898002180F83C10FFE700208DF82700A9
:10210000FFE79DF827000AB080BD000080B586B0CB
:10211000049003910292FFE7049890F83C00012894
:1021200004D1FFE702208DF817008DE0049801210B
:1021300080F83C10FFE7FFE70498022180F83D108B
:1021400002980C28019000F270800199DFE801F0FC
:10215000076D6D6D206D6D6D3A6D6D6D530004985A
:102160000068039900F00EFD04980068816941F051
:102170000801816104980068816921F0040181618E
:1021800003980069049909688A69104388614DE0E1
:1021900004980068039900F05DFD04980068816967
:1021A00041F40061816104980068816921F48061D3
:1021B000816103980069049909688A6942EA0020EC
:1021C000886133E004980068039900F0AFFD04983B
:1021D0000068C16941F00801C16104980068C169E3
:1021E00021F00401C1610398006904990968CA6972
:1021F0001043C8611AE004980068039900F002FED9
:1022000004980068C16941F40061C16104980068E4
:10221000C16921F48061C16103980069049909686A
:10222000CA6942EA0020C86100E0FFE70498012182
:1022300080F83D10FFE70498002180F83C10FFE78C
:1022400000208DF81700FFE79DF8170006B080BD4D
:1022500080B584B002900298002804D1FFE70120E5
:102260008DF80F0021E0029890F83D00002808D179
:10227000FFE70298002180F83C10029800F01AF85D
:10228000FFE70298022180F83D10029850F8041BE5
:1022900001900846019900F0B1FB0298012180F8F5
:1022A0003D1000208DF80F00FFE79DF80F0004B0EF
:1022B00080BD000081B0009001B0704780B584B04F
:1022C00003900291039800680299012200F00EFC2D
:1022D0000398006842F60041C4F20101884207D128
:1022E000FFE703980068416C41F400414164FFE757
:1022F00003980068806800F00700019001980628A4
:1023000007D0FFE703980068016841F00101016010
:10231000FFE7002004B080BD80B582B00090009837
:10232000002804D1FFE701208DF8070040E0009865
:102330008069002801D0FFE700E0FFE7009890F8EF
:102340003900002808D1FFE70098002180F83810F4
:10235000009800F031F8FFE70098242180F8391048
:1023600000980068C16821F40051C160009800F035
:10237000E7FD00980068016921F49041016100982F
:102380000068416921F02A01416100980068C16834
:1023900041F40051C16000980021C16300982022DF
:1023A00080F83920009880F83A208DF80710FFE770
:1023B0009DF8070002B080BD80B58CB00B90002066
:1023C0000A900990089007900B98006843F6000166
:1023D000C4F20101884247D1FFE7FFE741F218004C
:1023E000C4F20200016841F480410160006800F419
:1023F000804006900698FFE7FFE741F21800C4F21C
:102400000200016841F004010160006800F004006E
:1024100005900598FFE74FF40070079002200890A0
:1024200003200A9040F60001C4F2010107AA0490BB
:102430000846039111460292FEF778FD4FF4806042
:10244000079000200890099003990190084602998E
:10245000FEF76CFD252000900199049AFEF7B2FF6B
:102460000098FEF7A3FFFFE70CB080BD80B584B0F5
:10247000002003900290019040F27821C2F2000106
:1024800042F20042C4F201020A604FF480728A6094
:10249000087308754FF4C022CA61486004200861BF
:1024A0000846FEF7F5F9002803D0FFE7FEF7D4F859
:1024B000FFE70020019001210291039040F2782073
:1024C000C2F2000001A9FEF7F9F8002803D0FFE7E7
:1024D000FEF7C2F8FFE7012001900220029040F2CF
:1024E0007820C2F2000001A9FEF7E8F8002803D026
:1024F000FFE7FEF7B1F8FFE702200190032002900A
:1025000040F27820C2F2000001A9FEF7D7F80028B7
:1025100003D0FFE7FEF7A0F8FFE7032001900420B7
:10252000029040F27820C2F2000001A9FEF7C6F83E
:10253000002803D0FFE7FEF78FF8FFE704B080BD67
:1025400080B582B0FFE741F21400C4F202000168D6
:1025500041F001010160006800F001000190019864
:10256000FFE70B20002102220090FEF72BFF0098CE
:10257000FEF71CFF02B080BD80B58EB000200D902C
:102580000C900B900A900990089007900690059087
:10259000049003900290019040F22031C2F20001B9
:1025A0004FF080420A6040F2CF224A60886040F2D9
:1025B000E732CA600861802088610846FFF78EFC18
:1025C000002803D0FFE7FEF747F8FFE74FF48050FD
:1025D0000A9040F22030C2F200000AA9FFF7CAFCBC
:1025E000002803D0FFE7FEF737F8FFE740F220307E
:1025F000C2F20000FFF72CFE002803D0FFE7FEF731
:102600002BF8FFE700200890099040F22030C2F23A
:10261000000008A9FFF716FC002803D0FFE7FEF72B
:102620001BF8FFE7602001900020029003900590C6
:1026300040F22030C2F2000001A90422FFF766FD3B
:10264000002803D0FFE7FEF707F8FFE70EB080BDD4
:1026500080B540F26030C2F2000043F60001C4F2DF
:10266000010101604FF41651416000218160C16099
:1026700001610C2242618161C161FFF74DFE0028BA
:1026800003D0FFE7FDF7E8FFFFE780BD70470000DC
:1026900088B0079006910592079800F00700049013
:1026A0000498C0F10700052803D3FFE70420019038
:1026B00004E00498C0F107000190FFE7019803903F
:1026C00004980430062803D8FFE70020009003E0B8
:1026D000049803380090FFE7009802900698039949
:1026E000012202FA01F10139084002998840059B54
:1026F00002FA01F101391940084308B0704700009F
:1027000084B00B4603908DF80B1001929DF80B00DE
:102710001F281DDCFFE70198002804D0FFE701987F
:10272000012815D1FFE701980028009004D0FFE7A9
:102730000098012801D00AE009E09DF80B00012172
:1027400001FA00F003990A6810430860FFE700E00F
:10275000FFE704B07047000082B00190019840F29A
:102760000001C2F200010968C90844F6D352C1F25F
:102770006202A1FB0212920950430090FFE700BFE2
:10278000FFE70098411E00910028F8D1FFE702B052
:10279000704700007047000080B582B0009000983C
:1027A0000138B0F1807F03D3FFE70120019019E0E9
:1027B000009801384EF21401CEF2000108604FF08B
:1027C000FF300F2100F0E2FC4EF21800CEF20000C4
:1027D000002101604EF21000CEF2000007220260DC
:1027E0000191FFE7019802B080BD000080B503F0C1
:1027F00019FA04F0F7F903F02DFA80BD80B592B014
:1028000008A828210290FDF70EFD002007900690F1
:10281000059004900390012108914FF480320992B1
:102820000A900C9102200F9010924FF4E01011903A
:102830000298FEF7B9FF002803D0FFE7FDF70CFF71
:10284000FFE70F20039002200490002105914FF430
:1028500080620692079103A9019008460199FEF74C
:10286000D9FD002803D0FFE7FDF7F6FEFFE712B021
:1028700080BD000084B0002003900290019041F2DE
:102880000400C4F20200006800F00C0003900398FA
:102890000028009008D0FFE7009804280ED0FFE73A
:1028A0000098082814D057E040F20000C2F200005F
:1028B00041F20021C0F27A01016057E040F20000CD
:1028C000C2F2000041F20021C0F27A0101604DE045
:1028D00041F20400C4F20200016801F47011029197
:1028E000006800F4803001900298022101EB9040D2
:1028F0000290019800280CD1FFE7029840F60011E1
:10290000C0F23D01484340F20001C2F200010860FC
:1029100021E041F20400C4F20200006880030028B4
:102920000CD5FFE7029840F60011C0F23D01484384
:1029300040F20001C2F2000108600BE0029841F28F
:102940000021C0F27A01484340F20001C2F20001C6
:102950000860FFE7FFE709E040F20000C2F2000074
:1029600041F20021C0F27A010160FFE741F2040068
:10297000C4F202000068C0B2000947F27441C0F618
:102980000001085C0390039840F20001C2F20001CC
:102990000A6822FA00F0086004B0704741F20000B3
:1029A000C4F20200016841F00101016041F204013A
:1029B000C4F202010A680023CFF6FF031A400A603E
:1029C00002684FF6FF73CFF6F6631A4002600268A2
:1029D00022F480220260086820F4FE00086041F2C0
:1029E0000800C4F202004FF41F0101604EF60850C7
:1029F000CEF200004FF000610160704783B002909A
:102A00000191029800680090029842F60041C4F2D9
:102A10000101884215D0FFE70298B0F1804F10D035
:102A2000FFE7029840F20041C4F20001884208D05A
:102A3000FFE7029840F60001C4F2000188420AD183
:102A4000FFE7009820F0700000900198406800991E
:102A500008430090FFE7029842F60041C4F20101EA
:102A6000884215D0FFE70298B0F1804F10D0FFE701
:102A7000029840F20041C4F20001884208D0FFE70A
:102A8000029840F60001C4F2000188420AD1FFE733
:102A9000009820F4407000900198C06800990843A5
:102AA0000090FFE7009820F08000019949690843F1
:102AB0000090009802990860019880680299C862A5
:102AC0000198006802998862029842F60041C4F2B7
:102AD0000101884205D1FFE7019800690299086366
:102AE000FFE702980121416103B0704784B0039071
:102AF00002910192029800F01F00012101FA00F0FA
:102B00000090009803990A6A22EA0000086201987E
:102B1000029901F01F01884003990A6A1043086274
:102B200004B0704785B00490039102920193049819
:102B300080680090009820F47F40009003980299EC
:102B4000019A41EA02210843009908430090009845
:102B50000499886005B0704783B002900191029893
:102B600080680090009820F0700000900198009913
:102B7000084340F00700009000980299886003B075
:102B80007047000085B0049003910498016A21F019
:102B9000010101620498006A019004984068009065
:102BA000049880690290029820F0700002900298C8
:102BB00020F00300029003980068029908430290F5
:102BC000019820F002000190039880680199084361
:102BD0000190049842F60041C4F2010188420ED1EE
:102BE000FFE7019820F0080001900398C068019960
:102BF00008430190019820F004000190FFE7049839
:102C000042F60041C4F20101884213D1FFE7009867
:102C100020F480700090009820F4007000900398D9
:102C2000406900990843009003988069009908431F
:102C30000090FFE700980499486002980499886121
:102C4000039840680499486301980499086205B0A4
:102C50007047000085B0049003910498016A21F048
:102C6000100101620498006A019004984068009085
:102C7000049880690290029820F4E0400290029843
:102C800020F44070029003980068029941EA002005
:102C90000290019820F0200001900398806801992B
:102CA00041EA00100190049842F60041C4F201018B
:102CB00088420FD1FFE7019820F08000019003982F
:102CC000C068019941EA00100190019820F040008D
:102CD0000190FFE7049842F60041C4F201018842E6
:102CE00015D1FFE7009820F480600090009820F450
:102CF0000060009003984069009941EA80000090CC
:102D000003988069009941EA80000090FFE70098ED
:102D1000049948600298049988610398406804996E
:102D2000886301980499086205B0704785B00490E3
:102D300003910498016A21F4807101620498006A89
:102D400001900498406800900498C069029002982D
:102D500020F070000290029820F003000290039887
:102D60000068029908430290019820F400700190D5
:102D700003988068019941EA00200190049842F686
:102D80000041C4F2010188420FD1FFE7019820F40D
:102D9000006001900398C068019941EA0020019009
:102DA000019820F480600190FFE7049842F600410A
:102DB000C4F20101884215D1FFE7009820F4805049
:102DC0000090009820F4005000900398406900990A
:102DD00041EA0010009003988069009941EA0010D0
:102DE0000090FFE700980499486002980499C86130
:102DF000039840680499C86301980499086205B073
:102E00007047000085B0049003910498016A21F492
:102E1000805101620498006A019004984068009013
:102E20000498C0690290029820F4E0400290029851
:102E300020F44070029003980068029941EA002053
:102E40000290019820F40050019003988068019945
:102E500041EA00300190049842F60041C4F20101B9
:102E600088420BD1FFE7009820F48040009003983F
:102E70004069009941EA80100090FFE700980499AA
:102E8000486002980499C8610398406804990864EE
:102E900001980499086205B07047000085B004905D
:102EA000039102920498006A00900498016A21F04C
:102EB00001010162049880690190019820F0F000FE
:102EC00001900298019941EA00100190009820F0C9
:102ED0000A00009003980099084300900198049913
:102EE000886100980499086205B0704785B0049025
:102EF000039102920498016A21F010010162049882
:102F0000806901900498006A0090019820F4704054
:102F100001900298019941EA00300190009820F058
:102F2000A00000900398009941EA001000900198D9
:102F30000499886100980499086205B07047000000
:102F400080B584B0039003980068006920F4405075
:102F500003990A68C9680843106103988168026987
:102F6000406911430843029003980068C06841F229
:102F70000C6188430299084303990968C860039863
:102F80000068406920F4407003990A688969084321
:102F900050610398006843F60001C4F201018842C1
:102FA00029D1FFE7FEF77AFB0190019819214843E8
:102FB00003990A6849688900B0FBF1F048F21F5193
:102FC000C5F2EB11A0FB013C4FEA5C1C4FF0640E14
:102FD0000CFB1E004FF0320E0EEB0010A0FB0101A7
:102FE0004FF0F00E0EEA511E0EEB0C1CC1F3431114
:102FF0006144916028E0FEF73FFB019001981921A0
:10300000484303990A6849688900B0FBF1F048F227
:103010001F51C5F2EB11A0FB013C4FEA5C1C4FF0C5
:10302000640E0CFB1E004FF0320E0EEB0010A0FBE6
:1030300001014FF0F00E0EEA511E0EEB0C1CC1F315
:10304000431161449160FFE704B080BD80B582B058
:103050004FF0FF30019002F0E5FD40F26810C2F23F
:1030600000000068006800F020000021B1EB501F54
:1030700039D0FFE740F26810C2F200000068C06873
:10308000800600282FD5FFE7FFE74FF0FF300190C3
:1030900040F26810C2F200000068006800F02000F2
:1030A0000021B1EB501F08D0FFE743F60400C4F243
:1030B00001000068C0B20190FFE7019801300028CC
:1030C00001D1FFE708E0BDF8041044F21C70C2F221
:1030D000000003F011F9D8E744F29060C2F200005A
:1030E00003F022FAFFE702F0B5FD02B080BD000058
:1030F000FFE7FEE782B0009000980138B0F1807FD2
:1031000003D3FFE7012001901AE0009801384EF246
:103110001401CEF2000108604EF62350CEF20000FA
:10312000FF2101704EF21800CEF200000021016074
:103130004EF21000CEF20000072202600191FFE77C
:10314000019802B07047000081B001468DF803007D
:103150009DF9030000280FD4FFE79DF9030000F05C
:103160001F01012202FA01F140094EF20012CEF2D3
:10317000000242F82010FFE701B070474EF60C50F5
:10318000CEF200000068C0F30220704782B0024611
:103190008DF8070000919DF9070000280AD4FFE789
:1031A000009800019DF907104EF20042CEF2000295
:1031B00088540BE0009800019DF8071001F00F0102
:1031C0004EF61452CEF200028854FFE702B0704768
:1031D00083B00290029800F0070000904EF60C5069
:1031E000CEF200000168019101994FF6FF021140F3
:1031F00001910199009A41EA02210022C0F2FA529B
:10320000114301910199016003B07047002804BF88
:1032100000207047C1B209B101200CE010F47F41D9
:1032200002D0090A092006E010F47F0107BF010E51
:103230001920090C112047F2A052C0F60002515C7F
:103240000844704744F21450C2F200000168081AA2
:1032500018BF0120704700002DE9F0419AB0904658
:103260000D460646002102E08D421ED00131705C01
:10327000092818BF2028F7D1D1B1304601F0F2FF5C
:10328000B0B16C46074620466821FCF7CCFF3046BB
:103290002946224602F05EF850B16946B847C8F8A0
:1032A000000000201AB0BDE8F08129460029E4D1D1
:1032B0004FF0FF301AB0BDE8F08100002DE9F04773
:1032C00082B00446DDF83090DDE90A8A1C301D46E4
:1032D00016460F4602F030FD284623214246C4E937
:1032E0000A76C4E90C5802F085FE04F128030FCBDE
:1032F0001A4446F66D03043AC0F6000302F070FC6F
:1033000046F61D326062002704F15400C0F6000248
:103310002146234684F83EA084F83DA02764C4E9F2
:103320001399A76384F83C70C4E92277009701974A
:1033300003F0ECFC44F21C50C2F20000016809B139
:103340002046884702B0BDE8F087000080B5DDF870
:1033500008C000F1240E0CF0FE0C80F811C01C30E7
:103360004FF0000C8EE80E1002F0EAFC80BD000069
:1033700080B51C3002F056FD80BD000080B582B0E3
:1033800047F2A860C0F60000019001F035F9002175
:10339000019801F00DF802B080BD000010B54EF6A6
:1033A00029541CA0CEF2000402F0A4FC21781CA039
:1033B00002F0A0FC2078C00702D01FA002F09AFC07
:1033C0002078800702D51FA002F094FC20784007E7
:1033D00002D51FA002F08EFC2078000702D520A0A5
:1033E00002F088FC2078C00602D520A002F082FC02
:1033F00094F90000B0F1FF3F06DD47F2C270C0F65D
:10340000000002F077FC10BDD4F80F1019A002F0F4
:1034100071FC10BD627573206661756C743A0A00A8
:103420005343425F434653525F424653523A3078C9
:103430002530325820000000494255534552522051
:1034400000000000505245434953455252200000AD
:10345000494D505245434953455252200000000007
:10346000554E53544B4552522000000053544B4587
:10347000525220005343422D3E424641523A25309B
:1034800038580A0080B501F001FB002080BD000023
:1034900080B501F053FC002080BD000080B584B0F1
:1034A00068461E2141600521016047F20B70C0F69D
:1034B000000043F2F951C0F6000100224FF400630E
:1034C000039203F0A7F940F2EC11C2F20001086088
:1034D0006846022242600422026047F20370C0F68E
:1034E000000047F2B932C0F600024FF48073029137
:1034F0001146039A03F08EF944F28861C2F200018A
:10350000086002980168002908D0FFE740F2EC103B
:10351000C2F20000006803F0BFFAFFE747F2FB6069
:10352000C0F600000121002202F0DEFF40F2D411BB
:10353000C2F20001086004B080BD000080B582B016
:1035400040F26400C2F2000000F098FF40F27C00FC
:10355000C2F2000000F092FF40F2D400C2F200007C
:1035600000F08CFF40F23400C2F2000001F044F899
:1035700040F22C00C2F2000001F03EF840F24C0094
:10358000C2F2000000F07AFF40F20400C2F2000034
:1035900000F074FF40F22030C2F2000004210191DB
:1035A000FEF78CFE3821C4F200014FF4FA720A6073
:1035B00040F27821C2F2000140F2B012C2F20002E1
:1035C000009008461146019AFDF7D8FA40F2A8216A
:1035D000C2F200010A68136843F0020313600A682C
:1035E000136823F00403136009680A6822F00802D4
:1035F0000A6002B080BD000080B5A4B02390002016
:103600008DF88B008DF88A0047F2D060C0F600007C
:1036100002F070FBFFE740F21C30C2F20000002114
:1036200002F058F840F21C01C2F200012190084655
:10363000219901F009F80146002820913AD0FFE7CE
:103640002098012804D0FFE72098022828D05BE0CA
:1036500040F2E810C2F20000002101221F901E91EA
:103660001D92FFF74DF802211F981D9AFFF748F8A9
:1036700003211F981D9AFFF743F804211F981D9AF4
:10368000FFF73EF805211F981D9AFFF739F840F221
:103690001C30C2F200001E991D9A03F0A7FE33E011
:1036A00040F21C30C2F2000000211C911C9A03F071
:1036B0009DFE29E040F21C30C2F20000002102F021
:1036C00009F800281FD0FFE740F2E810C2F200001E
:1036D000002101221B901A92FFF712F802211B9879
:1036E0001A9AFFF70DF803211B981A9AFFF708F8AA
:1036F00004211B981A9AFFF703F805211B981A9AC0
:10370000FEF7FEFFFFE7FFE740F21C30C2F20000C9
:10371000012101F0DFFF40F21C01C2F2000108317B
:1037200019900846199900F08FFF0146002818915A
:1037300038D0FFE71898012804D0FFE7189802282E
:1037400027D059E040F2E810C2F2000001211790A2
:103750001691169AFEF7D4FF06211798169AFEF7CF
:10376000CFFF07211798169AFEF7CAFF082117986E
:10377000169AFEF7C5FF09211798169AFEF7C0FFA3
:1037800040F21C30C2F200001699169A03F02EFE89
:1037900032E040F21C30C2F200000121002203F0AE
:1037A00025FE29E040F21C30C2F20000012101F0A8
:1037B00091FF00281FD0FFE740F2E810C2F200009E
:1037C000012115901491149AFEF79AFF062115987D
:1037D000149AFEF795FF07211598149AFEF790FFAB
:1037E00008211598149AFEF78BFF09211598149A51
:1037F000FEF786FFFFE7FFE740F21C30C2F2000051
:10380000022101F067FF40F23C01C2F200010831E1
:1038100013900846139900F017FF014600281291F3
:1038200029D0FFE71298012804D0FFE71298022858
:1038300018D03BE040F2E810C2F2000001211190E4
:103840001091109AFEF75CFF0A211198109AFEF76A
:1038500057FF40F21C30C2F200000221109A03F020
:10386000C5FD23E040F21C30C2F20000022100221C
:1038700003F0BCFD1AE040F21C30C2F2000002214D
:1038800001F028FF002810D0FFE740F2E810C2F254
:10389000000001210F900E910E9AFEF731FF0A21D0
:1038A0000F980E9AFEF72CFFFFE7FFE740F21C305F
:1038B000C2F20000032101F00DFF40F23C01C2F210
:1038C00000010D9008460D9900F0BEFE014600284B
:1038D0000C9129D0FFE70C98012804D0FFE70C9841
:1038E000022818D03BE040F2E810C2F200000021AC
:1038F00001220B900A92FEF703FF0B210B980A9A04
:10390000FEF7FEFE40F21C30C2F2000003210A9ACC
:1039100003F06CFD23E040F21C30C2F200000321F2
:10392000002203F063FD1AE040F21C30C2F20000F6
:10393000032101F0CFFE002810D0FFE740F2E8108D
:10394000C2F200000021012209900892FEF7D8FE81
:103950000B210998089AFEF7D3FEFFE7FFE740F234
:10396000D410C2F20000006802F052FE02300028BB
:1039700003D1FFE703F0E2F834E240F2D810C2F2DC
:103980000000406840F6B931884224D3FFE740F296
:10399000E810C2F200000221012207900692FEF711
:1039A000AFFE03210798069AFEF7AAFE08210798A2
:1039B000069AFEF7A5FE09210798069AFEF7A0FED3
:1039C00000210798069AFEF79BFE07980699069A2B
:1039D000FEF796FE40E040F2D810C2F200004068C8
:1039E000C72824D8FFE740F2E810C2F20000062101
:1039F000012205900492FEF783FE07210598049AA0
:103A0000FEF77EFE04210598049AFEF779FE052153
:103A10000598049AFEF774FE00210598049AFEF7B3
:103A20006FFE05980499049AFEF76AFE13E040F2CF
:103A3000D810C2F200004068C8280BD3FFE740F25C
:103A4000D810C2F20000406840F6B831884201D870
:103A5000FFE7FFE7FFE7FFE740F2D810C2F2000000
:103A6000006840F6B931884224D3FFE740F2E810FD
:103A7000C2F200000221012203900292FEF740FEF2
:103A800007210398029AFEF73BFE08210398029A49
:103A9000FEF736FE05210398029AFEF731FE00215B
:103AA0000398029AFEF72CFE03980299029AFEF7F9
:103AB00027FE40E040F2D810C2F200000068C7289C
:103AC00024D8FFE740F2E810C2F2000006210122EC
:103AD00001900092FEF714FE03210198009AFEF770
:103AE0000FFE04210198009AFEF70AFE09210198B1
:103AF000009AFEF705FE00210198009AFEF700FEED
:103B000001980099009AFEF7FBFD13E040F2D810EF
:103B1000C2F200000068C8280BD3FFE740F2D810BB
:103B2000C2F20000006840F6B831884201D8FFE7D1
:103B3000FFE7FFE7FFE740F2E810C2F200000221D2
:103B400001F0C8FD002809D0FFE740F26400C2F28E
:103B500000000068012100F06FFC08E040F2640002
:103B6000C2F200000068002100F066FCFFE740F2AE
:103B7000E810C2F20000032101F0ACFD00280AD0D9
:103B8000FFE740F26400C2F2000000680830012143
:103B900000F052FC09E040F26400C2F2000000684C
:103BA0000830002100F048FCFFE740F2E810C2F2C4
:103BB0000000042101F08EFD00280AD0FFE740F24A
:103BC0006400C2F2000000681030012100F034FCF3
:103BD00009E040F26400C2F20000006810300021E9
:103BE00000F02AFCFFE740F2E810C2F200000521D5
:103BF00001F070FD00280AD0FFE740F26400C2F235
:103C0000000000681830012100F016FC09E040F2C5
:103C10006400C2F2000000681830002100F00CFCC3
:103C2000FFE740F2E810C2F20000062101F052FD69
:103C3000002809D0FFE740F27C00C2F200000068D3
:103C4000012100F0F9FB08E040F27C00C2F2000024
:103C50000068002100F0F0FBFFE740F2E810C2F23C
:103C60000000072101F036FD00280AD0FFE740F2EE
:103C70007C00C2F2000000680830012100F0DCFB8B
:103C800009E040F27C00C2F2000000680830002128
:103C900000F0D2FBFFE740F2E810C2F2000008217A
:103CA00001F018FD00280AD0FFE740F27C00C2F2C4
:103CB000000000681030012100F0BEFB09E040F276
:103CC0007C00C2F2000000681030002100F0B4FB5C
:103CD000FFE740F2E810C2F20000092101F0FAFC0F
:103CE00000280AD0FFE740F27C00C2F20000006822
:103CF0001830012100F0A0FB09E040F27C00C2F284
:103D0000000000681830002100F096FBFFE740F249
:103D1000E810C2F200000A2101F0DCFC002808D003
:103D2000FFE740F22C00C2F20000012100F084FB0A
:103D300007E040F22C00C2F20000002100F07CFB02
:103D4000FFE740F2E810C2F200000B2101F0C2FCD4
:103D5000002808D0FFE740F23400C2F20000012141
:103D600000F06AFB07E040F23400C2F200000021DC
:103D700000F062FBFFE740F2E810C2F20000002111
:103D800001F0A8FC002808D0FFE740F2EC00C2F2E6
:103D90000000012100F050FB07E040F2EC00C2F20D
:103DA0000000002100F048FBFFE740F2E810C2F2FB
:103DB0000000012101F08EFC002809D0FFE740F24D
:103DC000EC00C2F200000830012100F035FB08E0F1
:103DD00040F2EC00C2F200000830002100F02CFBA1
:103DE000FFE7FFE740F2E810C2F2000000210160A7
:103DF000052002F0F5FDFFF70EBC00000368024647
:103E00000A290CD14CF6CD40CCF6CC40A3FB0001E6
:103E1000C90801EB8100A3EB40001160704703F07B
:103E20000F0019091160704710B544F28C60C2F29E
:103E30000000006890F82900800706D440F2F010D6
:103E4000C2F200000021017033E040F27420C2F29F
:103E50000000016839B140F2F010C2F20000802287
:103E6000FCF7ECF925E001F073FA50B140F2F010E4
:103E7000C2F200000021017147F26D31C2F2680107
:103E80000DE040F2F01046F67301C2F20000C0F2FD
:103E90002001C0F8031046F66611C7F26E3140F2F9
:103EA000F014C2F2000401602046FCF7D3F93E2171
:103EB000215240F2F010C2F2000010BD80B501F0B6
:103EC0005BFD80BD44F28C61C2F20001096800F024
:103ED000010091F8292002F0FD0242EA400081F839
:103EE0002900704740F2A812C2F20002106040F2AE
:103EF000AC10C2F20000016070470000B0B582B0A3
:103F000047F6780047F61811C0F60000C0F6000129
:103F1000FFF7E8FF0120802101F012FC44F28C65DC
:103F2000C2F200052860F8B10A200621CDE9001090
:103F300043F6A17110A0C0F6000100224FF40073F7
:103F4000002402F067FC2A6805460DA110460022F5
:103F5000002302F0D9FA0120FFF7B4FF4DB1284643
:103F600002F09AFD002404E007A001F0C3FE4FF028
:103F7000FF34204602B0B0BD747368656C6C0000FD
:103F800073687278000000006E6F206D656D6F724F
:103F90007920666F72207368656C6C0A00000000FF
:103FA00044F28C67C2F20007386847F64D0590F876
:103FB000291047F2C27441F001014FF001084FF09F
:103FC0000009C0F600050FF2F82BC0F600044FF010
:103FD000020A80F8291001E080F82880FFF76EFFC0
:103FE0000028FBD4064638681B2EF5D090F8281020
:103FF000022908D0012940F070805B2E40F06B80D0
:1040000080F828A0EAE7A6F14101022980F828906B
:10401000E4D3442E00F28580DFE816F04500C400AA
:10402000C400C400C400C400C400C4008800FC0074
:104030006B00C400C4006B00C400C400C400C40012
:10404000C400C400C400C400C400C400C400C40050
:10405000C400C400C400C400C400C400C400C40040
:10406000C400C400C400C400C400C400C400C40030
:10407000C400C400C400C400C400C400C400C40020
:10408000C400C400C400C400C400C400C400C40010
:10409000C400C400C400C400C400C400C400C40000
:1040A000C4004600420199E7B0F87C10B0F87A20CD
:1040B0009142BFF493AF084490F82A1047F64F009E
:1040C000C0F6000001F016FE3868B0F87C1001312F
:1040D000A0F87C1082E780F828900D2E21D8DFE828
:1040E00006F007616161616161612599086161089C
:1040F00074E701F02DF901280DD1386890F82900F6
:10410000C00702D0204601F0F5FD3868B0F87A10FB
:104110002A3001F071F8386854212A30FCF783F80E
:104120005CE7FF2E3FF45AAF7F2E3BD1B0F87C10F6
:1041300000293FF453AFB0F87A200139531E9AB2E8
:10414000A0F87A308BB29A42A0F87C1040F29E80A0
:10415000C11801F12A002B31D21A01F02DFF386865
:10416000B0F87A10084480F82A903868B0F87C10CB
:10417000084400F12A0153A001F0BCFD3968B1F8F0
:104180007C00B1F87A1088423FF628AF461E00BF87
:10419000284601F0AFFD38680136B0F87A00864253
:1041A000F6D31BE7B0F87A10502928BFA0F87A9010
:1041B000B0F87C30B0F87A209A4247D9C11801F1A2
:1041C0002B002A31D21A01F0F7FE3868B0F87C10C3
:1041D000084480F82A60386890F82910C90707D089
:1041E000B0F87C10084400F12A0138A001F082FDEB
:1041F0003868B0F87C60B0F87A00864235D200BFEB
:10420000284601F077FD38680136B0F87A0086421A
:10421000F6D32AE03868B0F87C1051B1002600BF10
:10422000284601F067FD38680136B0F87C108E42F0
:10423000F6D32A3002F0C8FF3E6806F12A00FCF7E8
:1042400009F8A6F87A00A6F87C00C7E6104480F8C2
:104250002A60386890F82900C00706D047F64F005A
:10426000C0F60000314601F045FD3868B0F87A101C
:10427000B0F87C200131A0F87A1089B201325029BF
:10428000A0F87C2028BFC0F87A90A7E6584601F035
:1042900031FD3868B0F87A10084480F82A909DE61D
:1042A000B0F87C0000283FF499AE284601F022FDCA
:1042B0003868B0F87C100139A0F87C108EE600BF99
:1042C000082008000825732020080000257300003E
:1042D00010B54EF62C54CEF200042068800702D5AB
:1042E00010A001F007FD2068400011D514F8030C60
:1042F000002818BFFFF752F814F8040C002818BF64
:1043000000F0AEFE34F8020C002818BF02F0E2FF05
:104310002068B0F1FF3FC8BF10BD08A001F0EAFC63
:1043200010BD00BF6661696C656420766563746F5B
:10433000722066657463680A000000006465627537
:1043400067206576656E740A0000000080B502A0E3
:1043500001F0D0FC002080BD48656C6C6F20525489
:104360002D546872656164210A00000080B584B034
:104370000A4603908DF80B109DF80B0000280AD018
:10438000FFE703980168808801220190084601999F
:10439000FCF764FF09E00398016880880022009020
:1043A00008460099FCF75AFFFFE704B080BD000003
:1043B00080B584B00A4603908DF80B109DF80B0071
:1043C00000280AD0FFE70398016880880122019045
:1043D00008460199FCF742FF09E0039801688088CC
:1043E0000022009008460099FCF738FFFFE704B070
:1043F00080BD000080B584B00A4603908DF80B1094
:104400009DF80B0000280AD0FFE703980168808818
:104410000122019008460199FCF720FF09E003986A
:10442000016880880022009008460099FCF716FF7A
:10443000FFE704B080BD000080B584B00A46039059
:104440008DF80B109DF80B0000280AD0FFE70398A9
:10445000016880880122019008460199FCF7FEFE60
:1044600009E00398016880880022009008460099BE
:10447000FCF7F4FEFFE704B080BD000080B586B015
:10448000059005984068002849D0FFE705984068E6
:10449000012844D0FFE70598406811283FD0FFE786
:1044A0000598406802283AD0FFE70598406812282E
:1044B00035D0FFE7059840680021C1F2110188421C
:1044C0002DD0FFE7059840680021C1F22101884204
:1044D00025D0FFE7059840680021C1F231018842EC
:1044E0001DD0FFE7059840680021C1F21201884203
:1044F00015D0FFE7059840680021C1F222018842EB
:104500000DD0FFE7059840680021C1F232018842D2
:1045100005D0FFE705984068032804D1FFE7059818
:1045200040680290FFE70598806800280AD0FFE7FE
:1045300005988068012805D0FFE705988068022863
:1045400004D1FFE7059880680390FFE70598C068ED
:1045500002280AD0FFE70598C068012805D0FFE7C8
:104560000598C068032804D1FFE70598C068049047
:10457000FFE700208DF80300FFE79DF80300059991
:104580000969884236D2FFE7059800689DF8031054
:1045900000EBC1008088002813D0FFE70598006871
:1045A0009DF8031000EBC100C088002809D1FFE787
:1045B000059800689DF8031000EBC1004068019069
:1045C000FFE7059800689DF8031050F8310001A935
:1045D000FCF7ACFC059800689DF8031000EBC100E7
:1045E0000021FFF707FFFFE79DF8030001308DF87A
:1045F0000300C2E706B080BD80B586B005900220FA
:10460000039001200290049005984068019005985D
:10461000006801A9FCF78AFC06B080BD82B000905A
:1046200000980068806800994968084204D0FFE754
:1046300001208DF8070003E000208DF80700FFE758
:104640009DF8070002B0704780B584B00A4602901A
:104650008DF8071000208DF806008DF805000298EF
:104660000092FFF7DBFF8DF806009DF807009DF82C
:10467000061048408DF805009DF80500012814D16A
:10468000FFE79DF80700002804D1FFE701208DF81F
:104690000F0014E09DF80700012804D1FFE7022075
:1046A0008DF80F000BE0FFE709E09DF805000028FA
:1046B00004D1FFE700208DF80F0000E0FFE79DF830
:1046C0000F0004B080BD000080B586B00590FFE704
:1046D00047F2A860C0F6000000210490FFF746FEF4
:1046E000C820039002F0BCF80121049A0290104601
:1046F000FFF73CFE039802F0B3F80190E8E70000F2
:104700002DE9F04113A001F0F5FA40F2A81040F2B3
:10471000AC15C2F20000C2F20005076828688742A3
:1047200015D211A40FF2440804E000BF286808372E
:1047300087420CD23E68214630460222FBF791FDAB
:104740000028F3D04046314601F0D4FAEEE70020CD
:10475000BDE8F0812D2D46756E6374696F6E204C37
:104760006973743A0A0000005F5F000025730A0055
:104770002DE9F04F91B004AD0CA804212A4600F0B9
:1047800099F82EA036A2102101F0B4FA00F084FEB0
:1047900035A001F0AFFA002003E000BF0398002825
:1047A00048D00CA900F096F8109903900129F5DB88
:1047B0009DF83890DDF840A04FF0000B0CE000BFF2
:1047C00031A0102110223B46CDF8008001F092FA72
:1047D0000BF1010BD345E1DA55F82B40FBF7A2FCB6
:1047E00014F8041C01F07F06FBF7A0FC4E45EFD146
:1047F00004F108063046A4F1140701F0E3FAD4F8F6
:1048000010800028DCD1304601F0E2FA044623A0F3
:10481000102110223B46CDF80080019401F06AFA85
:10482000304602F0EFFC47F2C270C0F6000001F023
:1048300061FACDE7002011B0BDE8F08F252D2A2EBA
:104840007320202020202073657420202020737581
:104850007370656E64207468726561640A0000009C
:104860006576656E7400000020202D2D2D2D2D2DD8
:104870002D2D2D2D202D2D2D2D2D2D2D2D2D2D2D75
:104880002D2D2D0A00000000252D2A2E2A73202010
:1048900030782530387820300A000000252D2A2E67
:1048A0002A73202030782530387820253033643A38
:1048B0000000000070B50646084614460D4601F09B
:1048C00033FC04303572C6E9000408200021C6E933
:1048D000030170BDF0B581B00646C86800240C61C4
:1048E00050B3087A0D46E0B134462F68002E08BF59
:1048F0003C46FBF717FC36B114F8041C2A7A01F089
:104900007F01914215D16A68002100BF2468BC4232
:1049100009D0EB684E1C42F821409E423146F5D149
:1049200003E0002408E000240E46FBF7FFFB2E61A5
:1049300002E0FBF7FBFB0024204601B0F0BD0000C5
:104940002DE9F04F93B00DF118090EA805214A4644
:10495000FFF7B0FF2FA038A2102101F0CBF900F033
:104960009BFD37A001F0C6F9002002E00498002862
:104970004CD00EA9FFF7AEFF129904900129F5DB88
:104980009DF840A0129F4FF0000B05970EE000BF6E
:1049900032A0102110223B46CDE90085029401F09F
:1049A000A9F9059F0BF1010BBB45DFDA59F82B4044
:1049B000FBF7B8FB14F8041C01F07F05FBF7B6FB0E
:1049C0005545EFD104F108063046A4F1140701F073
:1049D000F9F9B4F81680A58A0446304601F0F8F9D2
:1049E000002C0446D4D123A0102110223B46CDE94F
:1049F0000085029401F07EF9304602F003FC47F294
:104A0000C270C0F6000001F075F9CAE7002013B0CB
:104A1000BDE8F08F252D2A2E7320656E74727920E3
:104A200073697A652073757370656E64207468723B
:104A30006561640A000000006D61696C626F780056
:104A4000202D2D2D2D20202D2D2D2D202D2D2D2DCA
:104A50002D2D2D2D2D2D2D2D2D2D0A00252D2A2EE0
:104A60002A732025303464202025303464202564C6
:104A70000A000000252D2A2E2A73202530346420B8
:104A800020253034642025643A00000080B540F2CF
:104A90004C40C2F20000016809A001F02BF944F279
:104AA0002870C2F2000001680AA001F023F940F268
:104AB0004840C2F2000001680BA001F01BF980BD64
:104AC000746F74616C206D656D6F72793A20256426
:104AD0000A00000075736564206D656D6F72792042
:104AE0003A2025640A0000006D6178696D756D20BB
:104AF000616C6C6F6361746564206D656D6F727954
:104B00003A2025640A0000002DE9F04F93B006AD6D
:104B10000EA803212A46FFF7CDFE23A02BA21021C9
:104B200001F0E8F800F0B8FC2AA001F0E3F800205A
:104B300002E000BF059898B30EA9FFF7CBFE1299CB
:104B400005900129F6DB9DF84070129E4FF0000899
:104B500004E000BF08F10108B045EBDA55F82890F1
:104B6000FBF7E0FA19F8041C01F07F04FBF7DEFA0A
:104B7000BC42EFD1D9F814A099F813B009F108009C
:104B8000A9F1140401F024F9CDE901AB039019A0B7
:104B90001021102223461024009401F0ABF8D9E72D
:104BA000002013B0BDE8F08F252D2A2E7320202081
:104BB0006F776E65722020686F6C642073757370F8
:104BC000656E64207468726561640A006D75746551
:104BD00078000000202D2D2D2D2D2D2D2D202D2D5B
:104BE0002D2D202D2D2D2D2D2D2D2D2D2D2D2D2D02
:104BF0002D0A0000252D2A2E2A7320252D382E2A35
:104C00007320253034642025640A00002DE9F04F1C
:104C100091B004AD0CA802212A46FFF74BFE2FA04D
:104C200035A2102101F066F800F036FC35A001F045
:104C300061F8002003E000BF039800284AD00CA9C7
:104C4000FFF748FE109903900129F5DB9DF8389095
:104C5000DDF840A04FF0000B0DE000BF2FA01021A9
:104C600010223B46CDF80080019401F043F80BF18F
:104C7000010BD345E0DA55F82B40FBF753FA14F853
:104C8000041C01F07F06FBF751FA4E45EFD104F109
:104C900008063046A4F1140701F094F8B4F8108027
:104CA0000446304601F094F8002C0446D6D11FA0EB
:104CB000102110223B46CDF80080019401F01AF833
:104CC000304602F09FFA47F2C270C0F6000001F0D1
:104CD00011F8CCE7002011B0BDE8F08F252D2A2E69
:104CE00073207620202073757370656E642074685D
:104CF000726561640A00000073656D6170686F72AF
:104D000065000000202D2D2D202D2D2D2D2D2D2D3C
:104D10002D2D2D2D2D2D2D0A00000000252D2A2EA4
:104D20002A7320253033642025640A00252D2A2E7D
:104D30002A7320253033642025643A002DE9F04F92
:104D400091B004AD0CA801212A46FFF7B3FD47F24C
:104D5000D170C0F6000035A2102100F0CBFF00F0AA
:104D60009BFB34A000F0C6FF00204AA703E000BF71
:104D70000398002856D00CA9FFF7ACFD10990390BA
:104D80000129F5DB9DF83880DDF840A04FF00009DF
:104D900006E000BFFBF7CAF909F10109D145E7DADE
:104DA00055F829B0FBF7BEF91BF8041C01F07F0190
:104DB0004145EFD1ABF11404FBF7B8F99BF829603A
:104DC0002CA0102110222346009600F093FF9BF8A0
:104DD000280000F00F01042906D840F3030028A1A1
:104DE00051F8200000F086FFDBF81C00013800BFFE
:104DF00010F8011F2329FBD0DBE90732DBF8101084
:104E0000101A9C18184464235843B0FBF2F3DBF8E3
:104E10003C00DBF82460611A00903846019600F0EF
:104E200069FFB9E7002011B0BDE8F08F74687265C2
:104E300061640000202D2D2D20202D2D2D2D2D2DB8
:104E40002D202D2D2D2D2D2D2D2D2D2D202D2D2DAC
:104E50002D2D2D2D2D2D2D20202D2D2D2D2D2D20A9
:104E6000202D2D2D2D2D2D2D2D2D2D202D2D2D0AAF
:104E700000000000252D2A2E2A73202533642000EF
:104E8000157800082778000830780008397800087D
:104E90001E7800082030782530387820307825308A
:104EA000387820202020253032642525202020300D
:104EB000782530387820253033640A002DE9F04F0A
:104EC00091B004AD0CA80A212A46FFF7F3FC29A0F3
:104ED00032A2102100F00EFF00F0DEFA31A000F047
:104EE00009FF47F2C67B0020C0F6000B02E000BFBE
:104EF0000398A8B30CA9FFF7EDFC109903900129C2
:104F0000F6DB9DF83860109C4FF0000804E000BF0D
:104F100008F10108A045EBDA55F82890FBF702F9F3
:104F200019F8041C01F07F0AFBF700F9B245EFD134
:104F3000D9E90607A9F11403009023A0102110223B
:104F4000019700F0D7FE19F8030C47F2C471C007AF
:104F50005846C0F6000108BF084600F0CBFED7E770
:104F600001F03AFE01461EA000F0C4FE002011B080
:104F7000BDE8F08F252D2A2E732020706572696F91
:104F800064696320202074696D656F75742020202A
:104F900020202020666C61670A00000074696D653E
:104FA00072000000202D2D2D2D2D2D2D2D2D2D208D
:104FB0002D2D2D2D2D2D2D2D2D2D202D2D2D2D2D2E
:104FC0002D2D2D2D2D2D0A00252D2A2E2A73203032
:104FD0007825303878203078253038782000000067
:104FE00063757272656E74207469636B3A307825EC
:104FF0003038780A0000000080B584B000200390AB
:105000000290FEF7BBF9684602214160072101606A
:1050100047F2B060C0F6000044F2C961C0F600017A
:105020008023029A01F0F6FB40F24041C2F20001F7
:1050300008600868002808D0FFE740F24040C2F24C
:105040000000006801F028FDFFE7FEF727FA03984B
:1050500004B080BD80B500F099FBFFF7CDFF80BDA7
:1050600010B54EF6285419A0CEF2000400F042FE0E
:1050700021781BA000F03EFE2078C00702D01EA0C1
:1050800000F038FE2078800702D51EA000F032FE26
:105090002078000702D51EA000F02CFE2078C00664
:1050A00002D51EA000F026FE94F90000B0F1FF3FEB
:1050B00006DD47F2C270C0F6000000F01BFE10BD16
:1050C000E16819A000F016FE10BD00BF6D656D20EF
:1050D0006D616E616765206661756C743A0A0000E7
:1050E0005343425F434653525F4D4653523A3078E2
:1050F00025303258200000004941434356494F4C67
:10510000200000004441434356494F4C200000001A
:105110004D554E53544B4552522000004D53544B65
:1051200045525220000000005343422D3E4D4D4158
:10513000523A253038580A002DE9F04F81B0044624
:105140000078002842D040F2A81040F2AC1BC2F216
:105150000000C2F2000B0768DBF8000087423AD279
:1051600047F6460A0025C0F6000A0FF288084FF0FD
:10517000000910E04846314602F084F8A842B8BF62
:1051800005464046314600F0B5FD00BFDBF80000A3
:105190000837874222D23E68514630460622FBF746
:1051A00060F80028F2D120460636FBF753F8024695
:1051B00020463146FBF755F80028E7D1002DD9D11C
:1051C0003046FBF747F80546B146D3E700F07EF8D6
:1051D00001B0BDE8F08F4FF000090025B9F1000FD4
:1051E00004D0204649462A4601F042FA01B0BDE803
:1051F000F08F00BF25730A0010B582B0044600BFCF
:105200002078202818BF092802D101340139F7E796
:10521000A9B101AA2046FEF71FF898B1A01E00BF51
:105220008178013011F0DF0FFAD10021417007A021
:10523000214600F05FFD4FF0FF3002B010BD0020AE
:1052400002B010BD019802B010BD00BF25733A2016
:10525000636F6D6D616E64206E6F7420666F756E26
:10526000642E0A002DE9F04740F2A812C2F20002B3
:10527000156840F2AC12C2F2000213689D4222D2BD
:10528000146847F646068A46804601F10609C0F6CC
:10529000000602E00835A54215D22F68314638468F
:1052A0000622FAF7DEFF0028F4D1B81D4146524627
:1052B000FAF7D7FF0028EDD117F809000028E9D147
:1052C0006868BDE8F0870020BDE8F0872DE9F0416F
:1052D00018A000F00FFD40F2A81040F2AC15C2F289
:1052E0000000C2F2000507682868874219D247F615
:1052F000460447F64208C0F60004C0F6000803E082
:105300002868083787420CD23E682146304606227C
:10531000FAF7A7FF0028F3D1B11D404600F0EAFCE0
:10532000EEE747F2C270C0F6000000F0E3FC002098
:10533000BDE8F08152542D54687265616420736831
:10534000656C6C20636F6D6D616E64733A0A00006A
:10535000012070472DE9F041904600294FF00002EE
:105360004FF000044FD0002603E000BF00F8012CEE
:105370000136013010F8013C202B18BF092B01D158
:105380008E42F3D31A2C41D28E423CD2222B28D10A
:1053900048F82400731C07788B424FF0000538BF93
:1053A0000125222F04F101040FD165B300F8012B70
:1053B000023626E01E4610F8017F01338B424FF083
:1053C000000538BF0125222FEFD08B42EDD25C2F94
:1053D000F0D1074617F8015F222D04BF3846B31CF1
:1053E000E8E7013848F8240001340378092B18BF96
:1053F000202B04D08E4202D201300136F5E78E42D6
:1054000001D28E42B5D32046BDE8F0810CA000F059
:1054100071FC47F642060025C0F6000658F8251034
:10542000304600F067FC0135A542F7D347F2C27061
:10543000C0F6000000F05EFC2046BDE8F08100BF31
:10544000546F6F206D616E79206172677320212027
:105450005765206F6E6C79205573653A0A0000001D
:1054600080B582B044F21C70C2F2000044F2B86110
:10547000C2F20001642200F019FF44F29060C2F20F
:10548000000047F2B461C0F6000100220192019BC6
:1054900001F03AF802B080BDB0B56FF00F0503A47B
:1054A000204600F027FC0135FAD3B0BD2D000000E6
:1054B00080B540F2F021C2F20001096842680A4456
:1054C000824218D05388B3B940F2EC23C2F20003F1
:1054D0001B689A420FD040F2444CC2F2000CDCF838
:1054E0000030934208BFCCF8000053684360526814
:1054F000431A0A449360D0F808E001EB0E0383429C
:1055000008BF80BD5A8802B180BD40F2444CC2F24F
:10551000000CDCF80020824208BFCCF80030426862
:105520005A6040680844C0F808E080BD2DE9F04F9B
:1055300087B0DDF848A004465FEA4A6047F22E7063
:1055400047F21D7BC0F60000C0F6000B58BF834633
:105550005FEACA600D4648BF2AF0010A5FEACA70D6
:105560004FF030011E4608BF20215FEA8A70069284
:1055700001D400200DE0B2F1FF3F07DD5FEA4A7081
:105580005ABF202000EA8A002B2002E050420690F9
:105590002D20019006980091A8B10698C0B14FF057
:1055A000000906AF0DF1080838463146FEF726FC23
:1055B0001BF80010069A09F1010008F80910002AEA
:1055C0008146F1D105E030208DF80800012000E08F
:1055D0000020119E109BB0423246C8BF02461AF00E
:1055E000110FA3EB020105D0DDF804C0BCF1000FE0
:1055F00024D129E0DDF804C00027BCF1000FE64605
:1056000018BF4FF0010E0029C8BF012707EA0E0797
:10561000C91B012959DB79421944891A202300BF8B
:10562000AC42A1F1010138BF2370002904F101044B
:10563000F6DC4FF0FF31BCF1000F05D0AC4238BFB3
:1056400084F800C0013901345FEACA630DD401292E
:1056500037DB009BAC42A1F1010138BF2370002968
:1056600004F10104F6DC4FF0FF31B04209DA3023D7
:10567000AC42A2F1010238BF2370904204F1010450
:10568000F6DB66B101280ADB02AA013AAC423CBF54
:10569000135C237004F101040EB10138F6DC01291A
:1056A0000BDB481C202100BFAC42A0F1010038BF39
:1056B0002170012804F10104F6DC204607B0BDE8A2
:1056C000F08F0139B042D2DBDBE70139BCF1000FCA
:1056D000B4D1B9E783B00A4601908DF803109DF864
:1056E00003001F280ADCFFE7019800689DF80310FB
:1056F000C84000F001008DF80B0003E002208DF897
:105700000B00FFE79DF80B0003B0704780B582B037
:10571000022045F255014FF0140C009006A0C0F68F
:10572000000100224FF48073CDF804C001F072F83C
:1057300001F0B2F902B080BD6D61696E0000000039
:10574000B0B501FB00F4204600F074FB054620B123
:1057500028460021224600F04DFC2846B0BD00003E
:10576000B0B547F66C0447F65800C0F60004C0F622
:105770000000A04228BFB0BD47F65805C0F600059E
:1057800055F8040B8047A542FAD3B0BDB0B547F633
:10579000740447F66C00C0F60004C0F60000A04296
:1057A00028BFB0BD47F66C05C0F6000555F8040BE0
:1057B0008047A542FAD3B0BD80B5FAF7B3FC44F2F6
:1057C0001051C2F200010A8801320A80FAF7AEFCD9
:1057D00080BD000080B5FAF7A5FC44F21051C2F27A
:1057E00000010A88013A13B2002B0A8002DDFAF7A1
:1057F0009DFC80BD00220A80FAF798FC40F25440DC
:10580000C2F200000068002808BF80BD00F0E0FD83
:1058100080BD000070B5002854D0044640F25C40C2
:10582000C2F20000016809B12046884740F2F02624
:10583000C2F200063068A04244D840F2EC20C2F226
:1058400000000068A04298BF70BD40F2F420C2F290
:1058500000004FF0FF31A4F10C0500F08BFE34F88E
:105860000A0C18B12888B0F5F55F0AD016A000F030
:1058700041FA34F80A2C34F80C3C1AA0294600F0FE
:1058800039FA4FF4F55044F80C0C40F24440C2F29F
:105890000000016844F22872A94288BF056054F8EC
:1058A000080C3168C2F200021368281A401A184422
:1058B00010602846FFF7FCFD40F2F420C2F2000021
:1058C00000F032FE70BD00BF746F20667265652007
:1058D0006120626164206461746120626C6F636B3B
:1058E0003A0A00006D656D3A203078253038782C02
:1058F000207573656420666C61673A2025642C20EE
:105900006D6167696320636F64653A203078253084
:1059100034780A0040F26040C2F200007047000094
:1059200040F26040C2F2000000F580407047000085
:1059300080B584B0FCF79EFF40F20000C2F2000088
:10594000006844F6D351C1F26201A0FB010189094C
:1059500003900846FDF7CEFB0290FFF701FFFFF72B
:10596000D9FF0190FFF7DCFF0199009008460099EC
:1059700000F098FE04B080BD80B582B000208DF8A4
:105980000700FFE744F21C70C2F200000DF10701AE
:1059900000F04AFC012809D0FFE744F29060C2F20F
:1059A00000004FF0FF3100F0E5FDEBE79DF8070048
:1059B00002B080BD80B584B00390002002900190B9
:1059C000FFE740F26810C2F20000002180F83810B2
:1059D000FFE7039800F044FE019000200290FFE7EB
:1059E00002980199884230D2FFE7FFE743F60000B2
:1059F000C4F2010000684006002801D4FFE7F5E783
:105A000003980299405C0A2812D1FFE743F604008C
:105A1000C4F201000D210160FFE743F60000C4F26B
:105A2000010000684006002801D4FFE7F5E7FFE722
:105A300003980299405C43F60401C4F20101086036
:105A4000FFE7029801300290CAE704B080BD000071
:105A500010B540F25841C2F200010968044621B174
:105A600020468847002808BF10BD216C47F2B77058
:105A7000C0F6000000F03EF9616A47F27670C0F6A9
:105A8000000000F037F9A16A47F28370C0F6000009
:105A900000F030F9E16A47F29070C0F6000000F0C3
:105AA00029F9216B47F29D70C0F6000000F022F941
:105AB000616847F2AA70C0F6000000F01BF9A16807
:105AC0001FA000F017F9E16821A000F013F9216987
:105AD00023A000F00FF9616925A000F00BF9A1697E
